:020000040800F2
:1000000000500020BD020008394600083B460008A9
:100010003D4600083F460008414600080000000039
:10002000000000000000000000000000434600083F
:100030004546000800000000474600084946000801
:100040000503000805030008050300080503000870
:100050000503000805030008050300080503000860
:1000600005030008050300080503000871460008A1
:100070000503000805030008050300080503000840
:100080000503000805030008050300080503000830
:10009000654600080503000805030008050300087D
:1000A0000503000805030008050300080503000810
:1000B0000503000805030008594600080503000869
:1000C00005030008050300080503000805030008F0
:1000D00005030008050300080503000805030008E0
:1000E00005030008050300080503000800000000E0
:1000F0000000000000000000000000000000000000
:0C01000000000000000000005FF808F1A3
:10010C0010B5054C237833B9044B13B10448AFF345
:10011C0000800123237010BD60050020000000004A
:10012C0040490008084B10B51BB108490848AFF30B
:10013C0000800848036803B910BD074B002BFBD0A7
:10014C00BDE81040184700BF000000006405002007
:10015C00404900086005002000000000D0400B1C46
:10016C00D1409C46203AD3401843524263469340B8
:10017C001843704770B50F4E0F4D761BB61018BF55
:10018C00002405D0013455F8043B9847A642F9D118
:10019C000A4E0B4D04F0CEFB761BB61018BF002494
:1001AC0006D0013455F8043B9847A642F9D170BDEE
:1001BC0070BD00BFD4490008D4490008DC490008D0
:1001CC00D4490008024B13B1024800F005B870473F
:1001DC0000000000F1010008002301461A461846F1
:1001EC0000F014B838B5074D074C2C1BA41005D0E3
:1001FC00013C55F8043D9847002CF9D1BDE8384036
:10020C0004F09EBBE0490008DC4900082DE9F047EA
:10021C00254C064625688846D5F8484192469946AD
:10022C00C4B360681F2817DC411C76B104EB800353
:10023C00C3F888A0D4F88851012282401543022EBD
:10024C00C4F88851C3F808911ED0831C616000204B
:10025C0044F82380BDE8F087144B03B34FF4C87007
:10026C00AFF300800446D0B1D5F84831002784E8BC
:10027C0088003846C5F848410121C4F88871C4F893
:10028C008C71002EE1D0D1E7D4F88C311A43C4F82C
:10029C008C21DAE705F5A674C5F84841C1E74FF0A3
:1002AC00FF30BDE8F08700BF704900080000000077
:1002BC00002103E00B4B5B58435004310A480B4BB5
:1002CC0042189A42F6D30A4A02E0002342F8043B51
:1002DC00084B9A42F9D300F011F8FFF74BFF03F0EB
:1002EC002BFE7047E049000800000020600500204C
:1002FC0060050020680F0020FEE700000F4B1A6815
:10030C0042F001021A6059680D4A0A405A601A6894
:10031C0022F0847222F480321A601A6822F480224D
:10032C001A605A6822F4FE025A604FF41F029A6057
:10033C00044B4FF000629A60704700BF00100240FF
:10034C000000FFF800ED00E010B5044601F004FFDA
:10035C004FF47A73B0FBF3F000F00CFB0022214653
:10036C004FF0FF3000F0C6FA002010BD08B5074A68
:10037C000320136843F01003136000F0A9FA002067
:10038C00FFF7E2FF04F07EF8002008BD00200240D9
:10039C00024A136801331360704700BF7C050020CC
:1003AC00014B1868704700BF7C05002013B5019005
:1003BC00FFF7F6FF0446FFF7F3FF019B001B984283
:1003CC00F9D302B010BD10B5436A9A6A12F0500FFF
:1003DC001BD19A6A42F400729A621A68926802F40B
:1003EC006022B2F5602F0CD1DA6852B99A6A22F405
:1003FC0080729A629A6AD2045EBF9A6A42F00102D3
:10040C009A62184603F016FD10BD1B6ABDE8104039
:10041C001B6B1847704708B5406AFFF7FBFF08BD18
:10042C00704708B5406A836A43F040038362C36A2D
:10043C0043F00403C362FFF7F3FF08BDF7B50023D5
:10044C00019390F82430012B00F0B180012380F847
:10045C0024304B680468062B0D6818D8676B4FF472
:10046C00787292FAA2F6B6FA86F6013B92FAA2F2EA
:10047C00B2FA82F25E4353434FF01F0E0EFA06F6A9
:10048C0027EA060605FA03F33343636330E00C2BCB
:10049C004FF4787216D8276B92FAA2F6B6FA86F653
:1004AC00073B92FAA2F2B2FA82F25E435A434FF041
:1004BC001F0E0EFA06F627EA060605FA02F3334378
:1004CC00236315E0E76A92FAA2F6B6FA86F60D3BBC
:1004DC0092FAA2F2B2FA82F25E4353434FF01F0E2D
:1004EC000EFA06F627EA060605FA03F33343E3622F
:1004FC000A680468092A4FF038038D6816D9E76832
:10050C0093FAA3F6B6FA86F60A3A93FAA3F3B3FA79
:10051C0083F356435A434FF0070E0EFA06F627EABA
:10052C00060605FA02F33343E36014E0276993FAF5
:10053C00A3F6B6FA86F693FAA3F3B3FA83F356430B
:10054C005A434FF0070E0EFA06F627EA060605FA8E
:10055C0002F3334323610B68103B012B01D90023B9
:10056C0020E00368134A934217D19A681202F6D41A
:10057C009A6842F400029A600B68102BEFD10E4B74
:10058C000E4A1B68B3FBF2F20A2353430193019BFF
:10059C00002BE4D0019B013BF8E7836A43F0200376
:1005AC0083620123002280F82420184600E00220F8
:1005BC0003B0F0BD002401402804002040420F008D
:1005CC0073B500230193036804469A68D20701D5DA
:1005DC00002026E09A6842F001029A60124B134AFE
:1005EC001B68B3FBF2F30193019B13B1019B013B1D
:1005FC00F9E7FFF7D5FE064623689B6813F0010563
:10060C00E6D1FFF7CDFE801B0228F5D9A36A84F84A
:10061C00245043F01003A362E36A012043F001036A
:10062C00E36202B070BD00BF2804002040420F00FE
:10063C00F8B51746404B026804469A420E4602D063
:10064C003E498A4203D15B6813F4702F70D194F841
:10065C002430012B6ED0012384F824302046FFF780
:10066C00AFFF002860D1A06A216820F47060334B82
:10067C0020F0010040F480709942A06204D12E4A0F
:10068C00536813F4702F0DD1A36A23F48013A36263
:10069C004B685A0513D5A36A23F4405343F4805393
:1006AC00A3620CE0A36A43F48013A36253685B0556
:1006BC0041BFA06A20F4405040F48050A062A36A6D
:1006CC001F4A13F4805318BFE36A4FF0000518BF9C
:1006DC0023F00603E362236A84F824509A62236AA7
:1006EC00184ADA62236A184A1A6323686FF0020206
:1006FC001A602268936843F48073936021683B46C8
:10070C0032464C31206A00F084F9236828469A68F6
:10071C0002F46022B2F5602F9A680CBF42F4A0027A
:10072C0042F480129A60F8BD002384F82430F8BD9E
:10073C000120F8BD0220F8BD002401400028014032
:10074C00D3030008230400082F04000838B50368FD
:10075C0004469A68D20701D4002038BD9A6822F06A
:10076C0001029A60FFF71CFE054623689B68DB07B5
:10077C00F2D5FFF715FE401B0228F6D9A36A01201B
:10078C0043F01003A362E36A43F00103E36238BD54
:10079C0038B50446002800F09280836A23B9C362FE
:1007AC0080F8243003F0B4FE2046FFF7CFFFA36A95
:1007BC0013F0100FA36A7FD100287DD194E80500B7
:1007CC0023F4885323F0020343F00203A3623D4B4E
:1007DC009842E36906D1B3F5402F14BF19464FF484
:1007EC00002100E01946E568022393FAA3F3B3FA5B
:1007FC0083F3114305FA03F31943A368B3F5807F20
:10080C0004D0012B0CBF4FF4807300236269012AC2
:10081C0015D165B94FF4604292FAA2F2B2FA82F5A0
:10082C00A26943F40063013AAA40134307E0A26AA9
:10083C0042F02002A262E26A42F00102E2624268E5
:10084C0022F469421343436022681F4B90680340B3
:10085C000B439360A368B3F5807F01D0012B0AD1C1
:10086C004FF4700393FAA3F3B3FA83F32269013ABA
:10087C0002FA03F300E000232068C26A22F470023B
:10088C001343C36223689A68104B1340994208D1F2
:10089C000020E062A36A23F0030343F00103A36288
:1008AC0038BDA36A23F0120343F01003A362E36A7A
:1008BC0043F00103E36202E043F01003A362012062
:1008CC0038BD00BF003C0140FDF7E1FFFE0E1FFFED
:1008DC00074A0002D36800F4E06023F4E0631B04D1
:1008EC001B0C43F0BF6343F400330343D3607047E6
:1008FC0000ED00E030B5174BDB68C3F30223C3F106
:10090C0007041D1D042C28BF0424062D4FF00105DF
:10091C0005FA04F404F1FF348CBF033B00230C40B4
:10092C009C4005FA03F3013B1A40002842EA0402FA
:10093C004FEA0212AFBF00F16040074B00F00F000E
:10094C00D2B2A5BFD2B200F561401A5480F8002390
:10095C0030BD00BF00ED00E014ED00E042090123C2
:10096C0000F01F0003FA00F0014B43F8220070471F
:10097C0000E100E00138B0F1807F0AD2064B074A53
:10098C00F021586082F823100020072298601A602A
:10099C0070470120704700BF10E000E000ED00E060
:1009AC00044B04281A680CBF42F0040222F0040223
:1009BC001A60704710E000E0704708B5FFF7FCFFC5
:1009CC0008BD10B518B390F821300BB980F8203061
:1009DC008268416804681143C268022311430269AA
:1009EC0080F821301143426923681143826923F452
:1009FC007F531143C26923F030030A43134323602E
:100A0C0001220023436380F82120184610BD0120E9
:100A1C0010BD30B590F82040012C4FF002042CD0C2
:100A2C00012580F82050056880F821402C6824F0BE
:100A3C0001042C60046863604368102B03680BBFCF
:100A4C009A609960036803680CBFD960DA60026829
:100A5C00136843F0020313600268136843F0040345
:100A6C0013600268136843F00803136002680020E7
:100A7C00136843F00103136030BD204630BD000005
:100A8C0070B5B14D03680446AB421CD9AF4A11682E
:100A9C00083293420DD0143293420CD0143293424C
:100AAC000BD0143293420CBF4FF400424FF400228F
:100ABC0005E0082203E0802201E04FF400620A42C4
:100ACC0000F08C802BE0A24A11680832934215D0BA
:100ADC001432934214D01432934213D014329342F2
:100AEC0013D01432934213D01432934213D0AB422E
:100AFC000CBF4FF000624FF400220EE008220CE015
:100B0C0080220AE04FF4006207E04FF4004204E058
:100B1C004FF4002201E04FF400020A427AD01A6826
:100B2C00120758D51A6822F008021A602368AB42E3
:100B3C0018D9884A93420DD0143293420CD01432F7
:100B4C0093420BD01432934214BF4FF400234FF452
:100B5C00004305E0082303E0802301E04FF4006329
:100B6C007A4A29E07C4A934216D01432934215D02B
:100B7C001432934214D01432934214D01432934250
:100B8C0014D01432934214D01432934214BF4FF445
:100B9C0000234FF000630EE008230CE080230AE0F2
:100BAC004FF4006307E04FF4004304E04FF40023DC
:100BBC0001E04FF40003664A5360636B43F001039A
:100BCC006363042384F82130002384F82030236BE2
:100BDC000BB1204698472368AB421BD95B4A11687E
:100BEC00083293420DD0143293420CD014329342FB
:100BFC000BD01432934214BF4FF480224FF4804236
:100C0C0005E0042203E0402201E04FF480620A4236
:100C1C002CD133E14E4A11680832934215D014326C
:100C2C00934214D01432934213D01432934213D003
:100C3C001432934213D01432934213D0AB4214BFEC
:100C4C004FF480224FF080620EE004220CE0402230
:100C5C000AE04FF4806207E04FF4804204E04FF466
:100C6C00802201E04FF480020A4277D01A685607BE
:100C7C0054D51A6890065EBF1A6822F004021A60F6
:100C8C002368AB4218D9334A93420DD014329342A5
:100C9C000CD0143293420BD01432934214BF4FF445
:100CAC0080234FF4804305E0042303E0402301E05C
:100CBC004FF48063254A29E0274A934216D0143218
:100CCC00934215D01432934214D01432934214D060
:100CDC001432934214D01432934214D014329342EF
:100CEC0014BF4FF480234FF080630EE004230CE01C
:100CFC0040230AE04FF4806307E04FF4804304E0A4
:100D0C004FF4802301E04FF48003114A5360112308
:100D1C0084F82130E36A0BB1204698472368AB4234
:100D2C001DD90A4A11680832934233D014329342C7
:100D3C0032D01432934231D01432934214BF4FF458
:100D4C0000324FF4005234E08000024000040240B4
:100D5C000000024008040240080002402368494A8F
:100D6C0011680832934215D01432934214D01432C5
:100D7C00934213D01432934213D01432934213D0B3
:100D8C001432934213D0AB4214BF4FF400324FF0E5
:100D9C0000720EE002220CE020220AE04FF40072F6
:100DAC0007E04FF4005204E04FF4003201E04FF43E
:100DBC0000120A4214BF01220022002A60D01A68D5
:100DCC0091075DD51A6892065EBF1A6822F002027E
:100DDC001A602368AB4218D92B4A93420DD01432B7
:100DEC0093420CD0143293420BD01432934214BF62
:100DFC004FF400334FF4005305E0022303E02023AB
:100E0C0001E04FF40073214A29E0214A934216D0A5
:100E1C001432934215D01432934214D014329342AC
:100E2C0014D01432934214D01432934214D014328E
:100E3C00934214BF4FF400334FF000730EE00223C3
:100E4C000CE020230AE04FF4007307E04FF400534A
:100E5C0004E04FF4003301E04FF40013094A5360EF
:100E6C00636B6363012384F82130002384F8203002
:100E7C00A36A2BB12046BDE870401847236850E7A1
:100E8C0070BD00BF00000240080402400004024094
:100E9C0008000240104BDA68D00641BF0F49CA69FE
:100EAC0042F00202CA61DB68590741BF0B4AD369A1
:100EBC0043F00103D361084BDA69D20708D507491F
:100ECC00CA6942F00402CA61DA6922F00102DA61ED
:100EDC001422DA60704700BF00200240F8050020A1
:100EEC00064B1A69120641BF054A00205A6002F1EE
:100EFC0088324CBF5A600120704700BF002002406E
:100F0C0023016745034A0020136943F080031361F2
:100F1C00704700BF0020024070B50446FFF740FA4E
:100F2C000646124DEB6813F0010F104B0AD0631CF0
:100F3C00F8D00CB9032070BDFFF732FA801B844245
:100F4C00F0D2F7E7DA68900644BF2022DA60DB685B
:100F5C00064AD90606D4D369DB0703D4D06810F04F
:100F6C00040002D0FFF796FF012070BD0020024064
:100F7C002DE9F84F214C1F46237E0546012B89464F
:100F8C00164637D001234CF250302376FFF7C4FFBE
:100F9C0060BB012D03D0022D0CBF022504254FF0A0
:100FAC000008C246DFF858B04FEA081230463946FE
:100FBC00FFF7D4F8C4F81CA0DBF8103080B243F073
:100FCC000103CBF8103029F818004CF25030FFF721
:100FDC00A3FFDBF8103023F00103CBF8103028B955
:100FEC0008F101085FFA88F39D42DDD800232376CF
:100FFC00BDE8F88F0220BDE8F88F00BFF80500208F
:10100C0000200240064B0022DA61064B1A6942F0BE
:10101C0004021A611A6942F040021A61704700BF5B
:10102C00F805002000200240064B0022DA61064B36
:10103C001A6942F002021A6158611A6942F04002C0
:10104C001A617047F8050020002002402DE9F0419C
:10105C00234D07462B7E8846012B3ED001242C764F
:10106C0003684CF25030022B10D1FFF755FF08B13A
:10107C0001202EE0FFF7C6FF4CF25030FFF74CFF7B
:10108C00184A136923F00403136122E0FFF744FFAD
:10109C000028EDD14FF0FF33C8F800302046BE6871
:1010AC00104CFA68BB6803EBC2239E4211D2304647
:1010BC00FFF7BAFF4CF25030FFF72EFF236923F0F5
:1010CC000203236110B1C8F8006002E006F5006667
:1010DC00E7E700232B76BDE8F0810220BDE8F08124
:1010EC00F80500200020024000232DE9F74F1D4693
:1010FC006A4ADFF8B0C1DFF8B0E101240F68AC40F8
:10110C0034EA070640F0C3804F68122F2BD00ED85C
:10111C00022F25D004D84FB3012F30D1CB682EE04D
:10112C00032F1BD0112F2AD1CB68043327E077452E
:10113C001CD006D8DFF87481474517D008F58038E5
:10114C0009E0DFF86C81474510D008F58038474539
:10115C000CD0A8F58018474511D107E000230EE00C
:10116C00CB6808330BE0CB680C3308E08B682BB1F1
:10117C00012B0CBF04614461082300E00423FF2C05
:10118C0097BF8346A5F10807D0F80090AF0084BF45
:10119C00D0F80490BF004FF00F0808FA07FA29EABC
:1011AC000A0903FA07F788BF00F1040B49EA07079D
:1011BC00CBF800704F68FE0069D5394E05F0030975
:1011CC00B7694FEA890947F00107B761B769A6F516
:1011DC00843607F001070197019F25F0030707F1FB
:1011EC00804707F58037D7F808A008FA09F8B0420D
:1011FC002AEA080816D006F58066B04215D006F526
:10120C008066B04214D006F58066B04213D006F565
:10121C008066B04212D060450CBF4FF0050A4FF00B
:10122C00060A0DE04FF0000A0AE04FF0010A07E051
:10123C004FF0020A04E04FF0030A01E04FF0040AF9
:10124C000AFA09F949EA0809C7F808904F6817F42F
:10125C00803F176814BF2743A74317604F6817F4E4
:10126C00003F576814BF2743A74357604F6817F4D4
:10127C00801F976814BF2743A74397604F6817F4E4
:10128C00001FD76814BF3C4327EA0404D46001351F
:10129C00102D7FF432AF03B0BDE8F08F0004014095
:1012AC0000100240001C0140000021100000111031
:1012BC000000311002B9090401617047C36859403C
:1012CC00C16070472DE9F041044686B000285FD01C
:1012DC0090F8E93303F0FF021BB980F8E82303F020
:1012EC00DDF925466E46032384F8E93355F8100BD7
:1012FC0001F0FCFB0FCD0FC62B68271D336097E860
:10130C000E00206801F0E2FB0021206801F0F8FBE0
:10131C00002123462246084604F11005012682F8D6
:10132C002810918601310F2982F8296082F82B0050
:10133C009063D063106402F12002F0D100221146B8
:10134C0083F808229A8601320F2A83F8091283F84F
:10135C000B12C3F81812C3F81C12C3F820124FF06A
:10136C00000803F12003EBD16E460FCD0FC62B689E
:10137C00336097E80E00206801F0C4FB012384F869
:10138C002480206884F8E93301F075FE404600E0C3
:10139C00012006B0BDE8F08110B590F8E8330446A2
:1013AC00012B0ED0012180F8E81303F070FA2068AD
:1013BC0001F05FFE206801F090FB002084F8E80348
:1013CC0010BD022010BD10B590F8E8230446012A88
:1013DC000BD0012280F8E82384F82410006801F077
:1013EC0042FE002084F8E80310BD022010BD38B581
:1013FC00044648B2002801F07F05B5BF04EB451147
:10140C0004EB4111283101F50271C00F0D704870C9
:10141C000A61CB7094F8E833012B09D0012384F8CE
:10142C00E833206801F082FB002084F8E80338BD23
:10143C00022038BD4BB210B5002B01F07F02B5BFB6
:10144C0000EB421100EB4111283101F50271DB0F69
:10145C000A704B7090F8E8330446012B09D0012335
:10146C0080F8E833006801F0D3FC002084F8E8032E
:10147C0010BD022010BD70B5044601F07F0670014E
:10148C002518C5F820320023C5F81C22C5F82432D3
:10149C0085F8093285F8086294F8E833012B0CD0F2
:1014AC00012300F50270211884F8E833206801F05C
:1014BC00FBFD002084F8E80370BD022070BD01F034
:1014CC007F0100EB4110B0F82402704770B5044660
:1014DC0001F07F06700125182B6400236B64012337
:1014EC00EA6385F8293085F8286094F8E8239A4255
:1014FC000AD02830211884F8E833206801F0D4FD94
:10150C00002084F8E80370BD022070BD2DE9F34182
:10151C000446006801F0B1FD010416D4206801F006
:10152C00ACFD420540F1E08122682046B2F844301F
:10153C0023F480631B041B0CA2F8443003F0E5F881
:10154C0000212046FFF73FFFCEE10023ADF8043029
:10155C0004F57B77ADF806302068B0F844309BB2C8
:10156C00ADF804301B04D9D5BDF8045015F00F05A7
:10157C0040F0B880BDF80410038801F0100189B266
:10158C0061BB23F4E14323F070031B041B0C0380A9
:10159C00206894F82830B0F8502092B202EBC303C4
:1015AC0000EB4303D3F80434E26BC3F30903636425
:1015BC001344E363204603F09DF894F82430002B89
:1015CC00CAD0226C002AC7D194F82430216843F089
:1015DC008003A1F84C3084F82420BDE79BB2ADF811
:1015EC000630BDF806301B051ED5B0F8503094F807
:1015FC0008229BB203EBC20300EB4303D3F80C3479
:10160C00B4F80C22C3F30903C4F82432394601F0B0
:10161C001BFE22682046138823F070031B051B0D4C
:10162C00138003F059F897E7BDF806301E0493D5E4
:10163C00038823F070031B051B0D0380206894F8AE
:10164C000822B0F850309BB203EBC20300EB43030B
:10165C00D3F80C34C3F30903C4F8243263B1B4F8DF
:10166C000C22D4F81C1201F0EFFDD4F81C22D4F893
:10167C0024321344C4F81C320021204603F032F803
:10168C002168D4F81802B1F850203E2892B202F129
:10169C00060201F580610BD9C0F34F13C50604BFD8
:1016AC0003F1FF339BB26FEAC3636FEA534306E067
:1016BC00C0F34F03C00744BF01339BB29B029BB2E4
:1016CC0041F812302268138823F4804323F070030E
:1016DC001B041B0C83F4405343F4004343F080037E
:1016EC00138039E730F825309BB2ADF80630BDF8E1
:1016FC000630190478D530F825304FEA451823F018
:10170C0070031B051B0D20F8253004EB080191F824
:10171C0012322068ABB9B0F8503091F808229BB265
:10172C0003EBC20300EB4303D3F80C64C6F30906C6
:10173C00DEB3B1F80C223346D1F81C1201F084FD53
:10174C0033E091F8083230F82320DB0012F4804F9C
:10175C00B0F8502092B2134400EB430308D0D3F8F6
:10176C000464C6F309067EB13346B1F80E2207E0D5
:10177C00D3F80C64C6F3090636B13346B1F810221F
:10178C00D1F81C1201F060FD04EB080393F8081269
:10179C00226832F8213023F0F0031B051B0D43F4B3
:1017AC00004343F0C00322F8213004EB0801D1F8C8
:1017BC002432D1F81C223344C1F82432D1F820321F
:1017CC003244C1F81C221BB1D1F81802864206D251
:1017DC00A04498F80812204602F084FF04E091F827
:1017EC0008122046FFF747FEBDF806301A067FF5B3
:1017FC00B3AE22686E0132F82530A11923F4E1430F
:10180C0023F070031B041B0C22F8253091F83230A6
:10181C0020680235B3B9B0F8503091F828209BB24B
:10182C0003EBC20300EB4303D3F8043404EB45157C
:10183C00C3F309036B60002B38D08A8DC96B01F0A0
:10184C0022FC33E091F8283030F82320DB0012F032
:10185C00400FB0F8502092B2134400EB430309D070
:10186C00D3F8043404EB4515C3F309036B606BB177
:10187C00CA8D08E0D3F80C3404EB4515C3F3090307
:10188C006B601BB10A8EC96B01F0FDFBA31993F8B9
:10189C002810226832F8213023F0F0031B051B0DB1
:1018AC0043F4404343F0800322F821302068A1190F
:1018BC00B0F8502091F8283092B202EBC30300EB41
:1018CC004303D3F80424CB6BC2F309024A641A44D1
:1018DC000B6CCA63204691F8281013B902F00AFF6A
:1018EC003AE6FFF7F3FD37E6206801F0C6FB470444
:1018FC0008D52268B2F8443023F480431B041B0C37
:10190C00A2F84430206801F0B8FB860408D52268A0
:10191C00B2F8443023F400531B041B0CA2F84430DF
:10192C00206801F0AAFBC50419D522682046B2F83C
:10193C00403023F004031B041B0CA2F84030236836
:10194C004FF43D42A3F8402002F0FCFE2268B2F8AE
:10195C00443023F480531B041B0CA2F84430206841
:10196C0001F08BFB000520D52268B2F8443023F43B
:10197C0000631B041B0CA2F844302268B2F8403000
:10198C009BB243F00803A2F840302268B2F8403012
:10199C009BB243F00403A2F84030206801F06DFBC9
:1019AC00C10402D4204602F0BDFE206801F065FBA4
:1019BC0082050BD522682046B2F8443023F400731C
:1019CC001B041B0CA2F8443002F09BFE206801F0B3
:1019DC0054FBC30508D52268B2F8443023F4807355
:1019EC001B041B0CA2F8443002B0BDE8F08138B5E2
:1019FC004BB2002B01F07F05B5BF00EB451100EB9E
:101A0C004111283101F502710122DB0FEDB28A7010
:101A1C000D704B7090F8E833044693420ED080F86A
:101A2C00E823006801F0ACFA25B904F57B71206855
:101A3C0001F027FB002084F8E80338BD022038BDF4
:101A4C0038B54BB2002B01F07F02B5BF00EB421151
:101A5C0000EB4111283101F50271DB0F00248C7071
:101A6C000A704B7090F8E8330546012B09D001231E
:101A7C0080F8E833006801F0B4FA85F8E8432046B2
:101A8C0038BD022038BD11F0800F1BBF01F07F0163
:101A9C0000EB411000EB4110283008BF00F502703C
:101AAC0012B98272838004E00122C3801B0C827203
:101ABC0003810020704700002DE9F74303680546B9
:101ACC00DC0703D42B6898076ED4EDE0B44C636844
:101ADC0003F00C03042B07D0636803F00C03082BF2
:101AEC0016D16368D90313D54FF4003393FAA3F2DC
:101AFC00226893FAA3F3B3FA83F303F01F0322FAD9
:101B0C0003F3DA07DED56B68002BDBD1012021E271
:101B1C006B68B3F5803F09D00BB923680AE0B3F5C5
:101B2C00A02F236806D143F480232360236843F459
:101B3C00803305E023F480332360236823F480236F
:101B4C0023606B68C3B1FEF72BFC07464FF40036DD
:101B5C0096FAA6F3226896FAA6F3B3FA83F303F087
:101B6C001F0322FA03F3DB07ACD4FEF719FCC01BEE
:101B7C006428EDD90320EDE1FEF712FC07464FF483
:101B8C00003696FAA6F3226896FAA6F3B3FA83F314
:101B9C0003F01F0322FA03F3D80793D5FEF700FCDA
:101BAC00C01B6428EDD9E5E77D4C636813F00C0F7E
:101BBC0007D0636803F00C03082B21D16368D903A9
:101BCC001ED4022393FAA3F2226893FAA3F3B3FA76
:101BDC0083F303F01F0322FA03F3DA0702D52B6910
:101BEC00012B93D12368F82292FAA2F2B2FA82F274
:101BFC00696923F0F80301FA02F21343236053E0FE
:101C0C002A6901237AB393FAA3F2B2FA82F2920010
:101C1C0002F1844202F584021360FEF7C1FB074611
:101C2C00022696FAA6F35E48226896FAA6F3B3FA51
:101C3C0083F303F01F0322FA03F3DB0705D4FEF74B
:101C4C00AFFBC01B0228ECD994E70368F82292FA88
:101C5C00A2F2B2FA82F2696923F0F80301FA02F2F5
:101C6C001343036020E093FAA3F3B3FA83F39B00CE
:101C7C0003F1844303F584031A60FEF791FB0746D6
:101C8C00022696FAA6F3226896FAA6F3B3FA83F321
:101C9C0003F01F0322FA03F3D80705D5FEF780FBE8
:101CAC00C01B0228EDD965E72B68190746D5AA6930
:101CBC003B4C01233B4912B393FAA3F2B2FA82F2E2
:101CCC0041F82230FEF76CFB0746022696FAA6F383
:101CDC0096FAA6F3626A96FAA6F3B3FA83F303F0C4
:101CEC001F0322FA03F3DA0705D4FEF759FBC01BD6
:101CFC000228EBD93EE70120FEF758FB1EE093FAD1
:101D0C00A3F3B3FA83F341F82320FEF749FB07460C
:101D1C00022696FAA6F396FAA6F3626A96FAA6F348
:101D2C00B3FA83F303F01F0322FA03F3DB0705D5A1
:101D3C00FEF736FBC01B0228EBD91BE72B685807B4
:101D4C0003D4EA69002A7AD1D3E0154C164EE36924
:101D5C0043F08053E361E36903F080530193019BEB
:101D6C00336843F480733360FEF71AFB074633681D
:101D7C00D90505D4FEF714FBC01B6428F7D9F9E686
:101D8C00EB68012B08D00BB9236A0FE0052B236AF3
:101D9C000CD143F004032362236A43F001030BE0EC
:101DAC0000100240800442420070004023F0010306
:101DBC002362236A23F004032362EB68FBB1FEF772
:101DCC00EFFA02268046374641F2883996FAA6F396
:101DDC0096FAA6F30BB1226A00E0626A97FAA7F3AF
:101DEC00B3FA83F303F01F0322FA03F3DA07A8D440
:101DFC00FEF7D6FAC8EB00004845E7D9BAE6FEF77D
:101E0C00CFFA02268046374641F2883996FAA6F375
:101E1C0096FAA6F30BB1226A00E0626A97FAA7F36E
:101E2C00B3FA83F303F01F0322FA03F3DB0788D51D
:101E3C00FEF7B6FAC8EB00004845E7D99AE6474CDE
:101E4C00636803F00C03082B3FF460AE022A4FF0DA
:101E5C0080735CD193FAA3F3B3FA83F39B0003F181
:101E6C00844303F5840300221A60FEF799FA0746AF
:101E7C004FF0007696FAA6F33849226896FAA6F344
:101E8C00B3FA83F303F01F0322FA03F3D80732D417
:101E9C002B6AB3F5803F05D14B6823F40032AB6855
:101EAC0013434B606368296A6A6A23F474130A4308
:101EBC00134363604FF0807393FAA3F3B3FA83F385
:101ECC009B0003F1844303F5840301221A60FEF79F
:101EDC0067FA06464FF0007595FAA5F3226895FA55
:101EEC00A5F3B3FA83F303F01F0322FA03F3DA0723
:101EFC0007D500202EE0FEF753FAC01B0228B9D9F3
:101F0C0038E6FEF74DFA801B0228E5D932E693FA43
:101F1C00A3F3B3FA83F39B0003F1844303F5840327
:101F2C0000221A60FEF73CFA06464FF0007595FA4F
:101F3C00A5F3226895FAA5F3B3FA83F303F01F0314
:101F4C0022FA03F3DB07D4D5FEF72AFA801B02280A
:101F5C00EDD90FE603B0BDE8F08300BF00100240DE
:101F6C001F4B70B503F110052E4686B002AC22460D
:101F7C0018685968083303C2AB421446F7D133884A
:101F8C00184CADF80430606800F00C03082B24D119
:101F9C004FF4701393FAA3F3B3FA83F300F47012B3
:101FAC0022FA03F306AA134413F8101CC30311D529
:101FBC0062684FF4003393FAA3F3B3FA83F002F49C
:101FCC000033C34006AA134413F8140C064BB3FB9E
:101FDC00F0F000E00548484300E0034806B070BD4F
:101FEC00584900080010024000127A0000093D0018
:101FFC002DE9F041544A044613680E4603F00703DA
:10200C008B420AD323689D0714D550494B6823F0A3
:10201C00F002A36813434B600CE0136823F0070332
:10202C000B431360136803F007039942EAD00120B5
:10203C00BDE8F0812368D80706D4434A136803F03F
:10204C0007039E424AD353E06268404D012A02D1F5
:10205C004FF4003304E0022A0CBF4FF0007302234C
:10206C0093FAA3F1296893FAA3F3B3FA83F303F079
:10207C001F0321FA03F3D907D9D56B6841F28838CD
:10208C0023F003031A436A60FEF78AF96368074674
:10209C00012B0CD16B6803F00C03042BCDD0FEF795
:1020AC007FF9C01B4045F5D90320BDE8F081022B18
:1020BC000FD16B6803F00C03082BBED0FEF770F940
:1020CC00C01B4045F5D9EFE7FEF76AF9C01B404548
:1020DC00EAD86B6813F00C0FF6D1AEE7136823F057
:1020EC00070333431360136803F007039E429ED12A
:1020FC002368164D13F0040F05D06B6823F4E062CF
:10210C00E36813436B6023681B0706D56B68226971
:10211C0023F4605343EAC2036B60FFF721FF6B6843
:10212C00F02292FAA2F2B2FA82F203F0F003D34058
:10213C00074AD35CD840074B18600020FEF704F91F
:10214C000020BDE8F08100BF0020024000100240DA
:10215C007449000828040020014B1868704700BF20
:10216C00280400202DE9F74303680546DC0764D5F5
:10217C003E4C3F4EE36943F08053E361E36903F067
:10218C0080530193019B336843F480733360FEF7F3
:10219C0007F907463368D80506D4FEF701F9C01BCA
:1021AC006428F7D903205EE0236A304813F44073A7
:1021BC0006D1236A23F440726B68134323623CE01C
:1021CC006A6802F440729342F3D0016A4FF4803390
:1021DC0021F4407793FAA3F2B2FA82F2254E4FF033
:1021EC00010E46F822E093FAA3F3B3FA83F300222C
:1021FC00C90746F823200762DBD5FEF7D1F8022683
:10220C008046374641F2883996FAA6F396FAA6F339
:10221C000BB1226A00E0626A97FAA7F3B3FA83F370
:10222C0003F01F0322FA03F3DA07C2D4FEF7B8F85F
:10223C00C8EB00004845E7D9B4E72B689B0706D5E7
:10224C000A494B6823F44042AB6813434B6028683F
:10225C0010F0100007D0054900204B6823F48002D1
:10226C006B6913434B6003B0BDE8F0830010024070
:10227C0000700040000442422DE9F04104460E4635
:10228C0090461D46FEF78CF80746B8F1000F3DD17D
:10229C002268936836EA03030ED0691CF9D07DB12D
:1022AC00FEF77EF8C01B8542F2D209E06B1C06D10A
:1022BC00936836EA0303F9D00020BDE8F08105BB32
:1022CC002268536823F0E00353602268136823F0FC
:1022DC0040031360A36AB3F5005F09D12268136849
:1022EC0023F4005313602268136843F40053136003
:1022FC00012384F85130002384F850300320BDE8CA
:10230C00F081FEF74DF8C01B8542D9D32268CFE788
:10231C0037B504460020ADF8060094F85100069D30
:10232C00012804D094F85100222840F05181002952
:10233C0000F04C81002A00F04981002B00F046810E
:10234C0094F85000012800F04381012084F85000DB
:10235C0094F85100A3870128E387A386E386A36A38
:10236C0004BF322084F851000020B3F5005F606593
:10237C00A2632163A064E06409D12268136823F48A
:10238C00005313602268136843F4005313602368EE
:10239C001A6851065EBF1A6842F040021A60E36880
:1023AC00B3F5006F636866D12BB1B3F5827F0CD1A6
:1023BC00E38E012B09D1226B23681288DA60236B20
:1023CC0002332363E38E013BE386E38E002B3CD187
:1023DC00A36AB3F5005F01BF2268136843F480530E
:1023EC0013602B46002237E02B46002202212046A8
:1023FC00FFF742FF002840F0C780226B2368128849
:10240C00DA60236B02332363E38E013B9BB2E386DA
:10241C0043B9A36AB3F5005F01BF2268136843F4A4
:10242C00805313602B46002201212046FFF724FF26
:10243C00002840F0A9802268A36BD2681A80A36B95
:10244C000233A363E38F013BE387E38E002BCBD1F5
:10245C006268002A77D12B4601212046FFF70CFF3A
:10246C00002840F091802268A36BD2681A80A36B7D
:10247C000233A36364E02BB1B3F5827F0BD1E38EFF
:10248C00012B08D1236B2268591C21631B78D36064
:10249C00E38E013BE386E38E002B40D1A36A01213E
:1024AC00B3F5005F08BF2268204602BF136843F4EF
:1024BC00805313602B460022FFF7DEFE002863D109
:1024CC00A36B3AE02B46002202212046FFF7D4FEF4
:1024DC00002859D1236B2268591C21631B78D360C7
:1024EC00E38E013B9BB2E38643B9A36AB3F5005F6D
:1024FC0001BF2268136843F4805313602B460022FB
:10250C0001212046FFF7B8FE00283DD1A36B5A1CD1
:10251C00A2632268D2681A70E38F013BE387E38ED3
:10252C00002BCFD1626872B92B4601212046FFF7F0
:10253C00A3FE48BBA36B5A1CA2632268D2681A7014
:10254C00E38F013BE387A36AB3F5005F11D12B4600
:10255C00002201212046FFF78FFE18B1636D43F076
:10256C00020310E02368DB689BB2ADF80630BDF8BF
:10257C0006302B46012280212046FFF77DFE28B134
:10258C00636D43F010036365032022E0A36A01210D
:10259C00B3F5005F84F8511014D123689A68D20601
:1025AC0010D5626D42F0020262651A6822F4005284
:1025BC001A602268136843F40053136084F85000C7
:1025CC00084606E0002384F8503002E0012000E0C9
:1025DC00022003B030BD7FB51E460023ADF80E308F
:1025EC0090F851500446EDB2012D40F0E9800029DD
:1025FC0000F0E780002A00F0E48090F850000128F9
:10260C0000F0DE80222084F85100A3646365E3644B
:10261C002363A386E386A36884F85050B3F5004F78
:10262C0008BF2068A163A287E28702BF036823F476
:10263C0080430360A36AB3F5005F09D12068036887
:10264C0023F4005303602068036843F400530360D1
:10265C006368B3F5827F0AD1A36843B984F850301C
:10266C000096134620460A46FFF752FE9FE0236869
:10267C001A6852065EBF1A6842F040021A60E3689C
:10268C0033BBE38F012B26D9334600220121204690
:10269C00FFF7F2FD002850D1A36B5A1CA2632268ED
:1026AC00D2681A70E38F013BE387EAE733460022D6
:1026BC0001212046FFF7E0FD00283ED12268A36BE4
:1026CC00D2681A80A36B0233A363E38F013BE387C9
:1026DC00E38F012BEAD8A36A0121B3F5005F08BF91
:1026EC002268204602BF136843F4805313603346BC
:1026FC000022FFF7C1FD0546F8B9E1682268A36B1B
:10270C0021B9591CA163D2681A7004E0D2681A80EE
:10271C00A36B0233A363E38F013BE387A36AB3F597
:10272C00005F13D13346002201212046FFF7A4FDA0
:10273C0028B1636D43F002036365032541E0236810
:10274C00DB689BB2ADF80E30BDF80E306368B3F5A4
:10275C00827F0BD1A368B3F5004F02D0B3F5806F25
:10276C0004D12268136823F040031360012384F81A
:10277C005130A36AB3F5005F1ED123689B68DB065A
:10278C001AD5204600F060F80128236811D1626D3B
:10279C0042F0020262651A6822F400521A60226842
:1027AC00136843F400531360002384F8503005463B
:1027BC0007E06FF010029A60002384F8503000E0BC
:1027CC000225284604B070BD10B50446002837D049
:1027DC0090F851300BB901F0D9FE2268022384F82D
:1027EC0051301368002023F04003136094E80E006E
:1027FC001A43E3681A4323691A4363691A43E3696A
:10280C001A43236A1A43A36A1A43A36903F4007395
:10281C0013430B60638B216803F00402636A134358
:10282C004B602368E26A1A612268D36923F400635F
:10283C00D361044B60651870012384F8513010BDCE
:10284C00012010BD80050020064B1B7843B10368A6
:10285C00054A934204D15869003018BF01207047D3
:10286C000120704780050020003800400268D368C2
:10287C0043F00103D36002680020136843F00103A6
:10288C00136070470268D36823F00103D36041F2F0
:10289C0011120368196A0A4042B940F24442196A9B
:1028AC000A401AB91A6822F001021A600020704717
:1028BC00704770477047704710B5036804461A6933
:1028CC00910715D5DA68920712D56FF002021A61DA
:1028DC000123037603689B699B0702D0FFF7E9FF8E
:1028EC0004E0FFF7E5FF2046FFF7E4FF0023237623
:1028FC0023681A69500717D5DA68510714D56FF099
:10290C0004021A6102232376236820469B6913F480
:10291C00407F02D0FFF7CDFF04E0FFF7C9FF204650
:10292C00FFF7C8FF0023237623681A69120716D510
:10293C00DA68100713D56FF008021A6104232376A6
:10294C0023682046DB69990702D0FFF7B2FF04E049
:10295C00FFF7AEFF2046FFF7ADFF00232376236879
:10296C001A69D20617D5DA68D00614D56FF01002A2
:10297C001A610823237623682046DB6913F4407F11
:10298C0002D0FFF796FF04E0FFF792FF2046FFF717
:10299C0091FF0023237623681A69D10708D5DA68DA
:1029AC00D20705D56FF001021A61204601F068FAD2
:1029BC0023681A69100608D5DA68110605D56FF078
:1029CC0080021A61204600F080F823681A695206CA
:1029DC0008D5DA68500605D56FF040021A6120461A
:1029EC00FFF769FF23681A6991060AD5DA6892061F
:1029FC0007D56FF020021A612046BDE8104000F0A8
:102A0C0063B810BD224A0368904212D002F50062EE
:102A1C0090420ED0B0F1804F0BD0A2F5983290427C
:102A2C0007D002F58062904203D002F5806290429A
:102A3C001DD14A6823F070031343154A904212D0FB
:102A4C0002F5006290420ED0B0F1804F0BD0A2F58F
:102A5C009832904207D002F58062904203D002F582
:102A6C008062904203D1CA6823F44073134303601D
:102A7C008B68C3620B688362054B984203D003F5E5
:102A8C000063984201D10B690363012343617047D2
:102A9C00002C014010B50446A0B190F8393003F079
:102AAC00FF021BB980F8382001F0A2FD022384F844
:102ABC0039302068211DFFF7A5FF012384F8393038
:102ACC00002010BD012010BD7047704784B001A8D4
:102ADC0080E80E0004B000207047B0F840309BB284
:102AEC0043F43D43A0F8403000207047B0F840302C
:102AFC0023F474535B045B0CA0F840300020704747
:102B0C000020704784B010B503AC84E80E0001239C
:102B1C00A0F840300023A0F84030A0F84430A0F8D2
:102B2C005030BDE81040184604B07047CB7830B533
:102B3C000A78032B2BD8DFE803F0021F0C1530F8B2
:102B4C0022309BB223F4EC4323F0700343F4007364
:102B5C001BE030F8223023F4EC4323F070031B0409
:102B6C001B0C12E030F822309BB223F4EC4323F020
:102B7C00700343F4C06308E030F822309BB223F4B6
:102B8C00EC4323F0700343F4806320F822300C787C
:102B9C0030F8243044F4004223F0F0031B051B0DE5
:102BAC0042F08002134320F824308B7A0D78002BEE
:102BBC0074D14A788B883AB3B0F850205B0892B243
:102BCC0002EBC5045B0000EB4404C4F800340A7843
:102BDC0030F822305B060BD530F8223023F0F003AE
:102BEC001B051B0D43F4004343F0C00320F82230B7
:102BFC000A7830F8223023F4E04323F040031B041E
:102C0C001B0C83F02003FBE0B0F850405B08A4B22F
:102C1C0004EBC50404345B0000F5806242F8143008
:102C2C00B0F850400B780D69A4B204EBC3043E2DF0
:102C3C0004F106040BD9C5F34F13ED0604BF03F1E1
:102C4C00FF339BB26FEAC3636FEA534306E0C5F3ED
:102C5C004F03ED0744BF01339BB29B029BB242F87A
:102C6C0014300A7830F822305C040BD530F822305E
:102C7C0023F0F0031B051B0D43F4404343F080038A
:102C8C0020F822300A7830F8223023F4804323F0E5
:102C9C0070031B041B0C83F44053B1E030F8253057
:102CAC0000F5806423F4F8731B051B0D43F40143FA
:102CBC0043F0800320F82530B0F850300A789BB2EE
:102CCC0003EBC203CA885208520044F81320B0F830
:102CDC0050300A789BB203EBC2030A8904335208C2
:102CEC00520044F813204B780A78002B46D130F868
:102CFC0022305B040BD530F8223023F0F0031B0597
:102D0C001B0D43F4404343F0800320F822300A7833
:102D1C0030F822305D060BD530F8223023F0F0036A
:102D2C001B051B0D43F4004343F0C00320F8223075
:102D3C000A7830F8223023F0F0031B051B0D43F406
:102D4C00004343F0C00320F822300A7830F82230D8
:102D5C0023F4804323F070031B041B0C83F44053B7
:102D6C0043F4004343F0800320F822300A7830F813
:102D7C00223023F0C0031B051B0D41E030F822303C
:102D8C005C040BD530F8223023F0F0031B051B0D2F
:102D9C0043F4404343F0800320F822300A7830F8A3
:102DAC0022305B060BD530F8223023F0F0031B05E4
:102DBC001B0D43F4004343F0C00320F822300A7883
:102DCC0030F8223023F0F0031B051B0D43F4404375
:102DDC0043F0800320F822300A7830F8223023F0B8
:102DEC00C0031B051B0D43F4004343F0800320F884
:102DFC0022300A7830F8223023F0F0039B049B0C2D
:102E0C0043F4004343F0800320F82230002030BD0F
:102E1C0010B58C7A4A780B781CBB82B130F8232021
:102E2C0052065BD530F8232022F0F0021205120D69
:102E3C0042F4004242F0C00220F823204EE030F869
:102E4C002320540440F18D8030F8232022F0F0022E
:102E5C001205120D42F4404242F0800220F8232069
:102E6C007FE0002A42D130F8232052040BD530F8F1
:102E7C00232022F0F0021205120D42F4404242F0DF
:102E8C00800220F823200A7830F822305C060BD51B
:102E9C0030F8223023F0F0031B051B0D43F40043E4
:102EAC0043F0C00320F822300A7830F8223023F0A7
:102EBC00F0031B051B0D43F4004343F0C00320F843
:102ECC0022300A7830F8223023F0F0039B049B0C5C
:102EDC0043F4004343F0800320F822300A7830F8A2
:102EEC00223023F0C0031B051B0D41E030F82320DA
:102EFC0052040BD530F8232022F0F0021205120DEB
:102F0C0042F4404242F0800220F823200A7830F844
:102F1C0022305B060BD530F8223023F0F0031B0572
:102F2C001B0D43F4004343F0C00320F822300A7811
:102F3C0030F8223023F0F0031B051B0D43F4404303
:102F4C0043F0800320F822300A7830F8223023F046
:102F5C00C0031B051B0D43F4004343F0800320F812
:102F6C0022300A7830F8223023F0F0039B049B0CBB
:102F7C0043F4004343F0800320F82230002010BDBE
:102F8C000A787AB903889BB223F4804323F0400378
:102F9C0083F4805383F0100343F4004343F0800325
:102FAC0003801CE04B7853B130F8223023F4E0431B
:102FBC0023F040031B041B0C83F0100309E030F8D2
:102FCC00223023F4804323F070031B041B0C83F486
:102FDC00805343F4004343F0800320F82230002058
:102FEC0070474B780A78DBB130F822305B060BD592
:102FFC0030F8223023F0F0031B051B0D43F4004383
:10300C0043F0C00320F822300A7830F8223023F441
:10301C00E04323F040031B041B0C83F030031AE045
:10302C0030F822305B040BD530F8223023F0F0035B
:10303C001B051B0D43F4404343F0800320F8223062
:10304C000A7830F8223023F4804323F070031B04F9
:10305C001B0C83F4405343F4004343F0800320F8EB
:10306C0022300020704711B98023A0F84C3000208A
:10307C0070470020704700207047B0F8440080B2C1
:10308C00704700207047013300F5806010B55B106D
:10309C0000EB42020024A34205D031F8020B22F8C7
:1030AC0024000134F7E710BDF8B5044648780E4605
:1030BC0001288B690A698F7A57D11D46934283BFC9
:1030CC009D1A8D611546002398BF8B61ABB27FB9F9
:1030DC008A8820464969FFF7D6FFB4F85030327819
:1030EC009BB203EBC20304EB4303C3F8045430E07C
:1030FC000A78204634F82210D20011F0400FB4F8B0
:10310C00501089B20A4404EB4202C2F8045414BFB2
:10311C003289F2887169FFF7B6FF7378327853B948
:10312C0034F8223023F0F0031B051B0D43F400434D
:10313C0043F0C0030BE0012B0BD134F8223023F009
:10314C00F0031B051B0D43F4404343F0800324F8AC
:10315C002230327834F8223023F4E04323F0400359
:10316C001B041B0C83F0300366E093428BBF9B1A4D
:10317C0000228B618A6188BF1346097827B300BB94
:10318C00B4F850203E2B92B202EBC10101F10201C6
:10319C0004F580600BD9C3F34F12DD0604BF02F1B6
:1031AC00FF3292B26FEAC2626FEA524206E0C3F398
:1031BC004F02DF0744BF013292B2920292B240F842
:1031CC001120727831780ABBB4F850203E2B92B2A1
:1031DC0002EBC10101F1060104F580600BD9C3F3C8
:1031EC004F12DD0604BF02F1FF3292B26FEAC262E7
:1031FC006FEA524206E0C3F34F02DB0744BF0132D1
:10320C0092B2920292B240F811200AE0012A08D13F
:10321C00B4F8502092B202EBC10104EB4101C1F8A9
:10322C000434327834F8223023F4804323F07003D2
:10323C001B041B0C83F4405343F4004343F0800302
:10324C0024F822300020F8BD013300F5806010B561
:10325C005B1000EB42020024A34205D052F824007C
:10326C0021F814000134F7E710BD00002923038076
:10327C0000487047EC040020D0F81832002083F886
:10328C00500070470A23038000487047E004002078
:10329C0038B5D0F818420546002C2DD001F0EBFAC9
:1032AC00237BE064022B1ED1637B012B19D0022BF4
:1032BC0019D1217CE27B02EB012210490A80A17C0E
:1032CC00627C02EB01220E490A80217DE27C02EB3A
:1032DC0001220C490A80A17D627D02EB01220A4980
:1032EC000A800A4A1380402304F10C02012128466B
:1032FC0001F0BAFA002038BD022038BD16050020B6
:10330C001A05002018050020260500209A0500202B
:10331C0038B50C78054614F06004D0F8183221D07A
:10332C00202C45D14A78023A092A16D8DFE802F057
:10333C000F081515151515150B058A781A6037E049
:10334C000122194605E04A88120A5A6030E001222F
:10335C00191D284600F05FFB2AE0284600F0ABF967
:10336C00022426E04A780A2A19D00B2A1DD0062AF4
:10337C001FD14B881B0A222B05D1CA880E496E2AF5
:10338C0028BF6E2209E0212B05D1CA880B49092AD6
:10339C0028BF092201E021462246284602E00122EC
:1033AC0003F1080100F037FB03E08A789A6000E033
:1033BC000024204638BD00BF64040020D404002043
:1033CC0010B50446812101F01CFA0121204601F0C0
:1033DC0018FAD4F8180220B101F058FA0023C4F8F6
:1033EC001832002010BD38B505460A23032281216E
:1033FC0001F0FDF9402303220121284601F0F7F9E1
:10340C00542001F03FFAC5F8180260B1002480F88E
:10341C005040D5F8182240230C320121284601F0E7
:10342C0023FA204638BD012038BD38B5134690F834
:10343C00FC21032A0DD1D0F8185295F8504044B90C
:10344C00012285F850200A46812101F006FA204617
:10345C0038BD022038BD08B580B1D0F8143213B194
:10346C000023C0F8143209B1C0F81012012380F8FF
:10347C00FC31027001F07AF9002008BD022008BD71
:10348C0019B1C0F81412002070470220704708B51B
:10349C0001F0A6F9002008BD08B5D0F814320BB91C
:1034AC00022008BD1B6898470028F9D108BD08B553
:1034BC00D0F814325B689847002008BD38B5044634
:1034CC0000F50275284600F0E2F80123C4F8F43147
:1034DC0094F80812B4F80E32C4F8F83101F01F0356
:1034EC00012B0CD006D3022B0ED12946204600F01E
:1034FC0013FA0EE02946204600F0E8F809E02946C8
:10350C00204600F0F1F904E001F08001204601F0C2
:10351C007FF9002038BD38B50446154609BBD0F8F4
:10352C00F431032B26D1D0F80C11D0F81021914294
:10353C000AD98B1A9A4228BF1A46C0F80C3192B29B
:10354C00294600F07DFA15E0D0F814321B6923B13E
:10355C0090F8FC21032A00D19847204600F078FA15
:10356C0008E0D0F814329B6923B190F8FC21032AAF
:10357C0000D19847002038BD70B5134604460E465E
:10358C0000293CD1D0F8F421022A30D1C569026A55
:10359C00954207D9AA1AC261194692B200F048FAAC
:1035AC00334611E08369B3FBF2F502FB15358DB997
:1035BC009A420FD8D0F8F82193420BD22A4600F049
:1035CC0037FA2B46C4F8F8511A461946204601F032
:1035DC004BF90CE0D4F81432DB682BB194F8FC21D5
:1035EC00032A01D120469847204600F03CFA94F873
:1035FC000032012B0CD1002384F8003208E0D0F803
:10360C0014325B6923B190F8FC21032A00D198474E
:10361C00002070BD38B504460022114640254023D9
:10362C0001F0E5F82B46C4F8105100228021204609
:10363C0001F0DDF8012384F8FC31D4F8183225624E
:10364C002BB1D4F8143221795B68204698470020BE
:10365C0038BD01740020704790F8FC3180F8FD31C2
:10366C00042380F8FC310020704790F8FD3180F87D
:10367C00FC310020704708B590F8FC21032A04D1D6
:10368C00D0F81432DB6903B19847002008BD0B78E1
:10369C0003704B784370CA788B7803EB022343801A
:1036AC004A790B7903EB02238380CA798B7903EB7C
:1036BC000223C380704710B50446802101F0A8F89E
:1036CC002046BDE81040002101F0A2B873B54B783C
:1036DC0004460D46092B00F2FD80DFE813F0CF0005
:1036EC00E600FB00E200FB0075000A00FB00BF00D7
:1036FC0092004B881A0A013A062A00F2EB80DFE8A6
:10370C0012F007000B001700E900E9003C0047002D
:10371C00D0F810321B6817E0027CD0F814320AB9CA
:10372C009B6A00E0DB6A0DF10600984702233AE041
:10373C00DBB2052B00F2CE80DFE803F0030B0F1396
:10374C00171BD0F810325B680DF10601207C9847EE
:10375C002AE0D0F810329B68F6E7D0F81032DB681C
:10376C00F2E7D0F810321B69EEE7D0F810325B6943
:10377C00EAE7D0F810329B69E6E7037C002B40F0B7
:10378C00A980D0F814320DF106005B6B98470BE062
:10379C00037C002B40F09E80D0F814320DF1060013
:1037AC001B6B984707234370BDF80620002A00F0D6
:1037BC009580EB88002B00F091809A4228BF1A4626
:1037CC000146ADF8062068E08B88002B40F0828023
:1037DC00CB88002B7ED190F8FC318E78032B06F031
:1037EC007F0677D080F8FE61314601F02FF8204635
:1037FC0000F02EF90EB1022300E0012384F8FC3115
:10380C006CE08978374E0129317063D890F8FC311F
:10381C00022B02D0032B08D05CE0002956D00121EA
:10382C000323416080F8FC3112E049B9022380F88F
:10383C00FC314160FFF73BFE204600F009F945E002
:10384C004168012942D0C9B2FFF731FE317861607D
:10385C002046FFF721FE022838D13BE0CA88012A16
:10386C0038D190F8FC31022B03D0032B32D1011D3F
:10387C0013E00146002341F8083F0EE090F8FC31BC
:10388C00023B012B26D80123C360D0F804320BB1C4
:10389C000323C360022204F10C01204600F0BBF8A4
:1038AC001CE04B88012B19D108E090F8FC31023B4D
:1038BC00012B0FD84B88012B10D10023C4F80432F4
:1038CC00D4F8143229469B6820469847204600F0CD
:1038DC00BFF803E029462046FFF7EDFE002002B0BA
:1038EC0070BD00BF8105002038B590F8FC3104464E
:1038FC00032B0D460CD10B79012B09D8D0F81432BF
:10390C009B689847EB882BB9204600F0A1F801E0A2
:10391C00FFF7D1FE002038BD70B50A788E8802F012
:10392C006002202A04460D46F3B204D1D0F81432BA
:10393C009B68984751E04A78012A10D026D3032A75
:10394C004BD190F8FC21022A27D0032A43D14A8874
:10395C0092B95E0610D0194600F05AFF0CE090F8B0
:10396C00FC21022A19D0032A35D14A88AABB590650
:10397C0008D0194600F053FFD4F8143229469B683E
:10398C0020469847204600F063F826E090F8FC218A
:10399C00022A02D0032A06D01DE05A061DD0194671
:1039AC0000F036FF19E003F07F0516F0800F00EBF6
:1039BC000515194614BF143505F5827500F036FF50
:1039CC0010B101232B6000E028600222294620461A
:1039DC0000F021F801E0FFF76EFE002070BD30B55D
:1039EC00C0B105462B1A15F8014BDBB2002CF9D1EE
:1039FC005B00023313800B7003234B7001380223DE
:103A0C0010F8015F35B15A1CCD54D2B20233DBB27F
:103A1C008C54F5E730BD134610B50222C0F8F421E2
:103A2C0083610A46C361002100F017FF002010BD1E
:103A3C0008B513460A46002100F00FFF002008BD10
:103A4C0008B513460A46002100F00EFF002008BD01
:103A5C0008B50423C0F8F43100231A46194600F0C7
:103A6C00FCFE002008BD08B50523C0F8F431002386
:103A7C001A46194600F0F8FE002008BD4FF6FF71FB
:103A8C00064A904205D803889BB28B4203D104307E
:103A9C00F7E7012070470020704700BFFFF70008D0
:103AAC0038B51C4B05461B889CB21B4B188880B242
:103ABC0030B94EF6EE639C4214BF2023002309E07C
:103ACC0034B94EF6EE6398420CBF2023002301E07C
:103ADC00AB2038BD03F58034104801331E34DB02B3
:103AEC00E4021844844213D2236801330ED10A46EF
:103AFC00002321460120FDF73BFA28B92A46002372
:103B0C00A11C0120FDF734FA80B238BD0434E9E77A
:103B1C00802038BD00F0000800F80008FFEF000816
:103B2C0010B5002386B0134801930293012304902F
:103B3C000593FFF7A3FF40B1002200230D4901209C
:103B4C00FDF716FA044688B906E001A902A8FDF7AC
:103B5C007DFA0028F0D00AE007480490FFF78EFFAA
:103B6C0020B901A902A8FDF771FA00E0204606B0C1
:103B7C0010BD00BF00F0000800F8000810B50F4B96
:103B8C000F4A1B8812889BB292B21BB10AB1AB20B0
:103B9C0010BD2023DC020B4A0B4B224423449A42D7
:103BAC000AD91488A4B2844204D132F8023C002011
:103BBC000B8010BD043AF2E7012010BD00F00008A4
:103BCC0000F80008FEF7000802F000082DE9F047A5
:103BDC004EF6EE6586B000215F48019104885F4A7D
:103BEC00A3B21488AB4202914FF00101A4B204902D
:103BFC0005911AD04FF6FF718B4203D0002B40F089
:103C0C00A28063E0002C45D0AC4240F09C80FFF7D2
:103C1C0035FF30B901A902A8FDF718FA002840F0C9
:103C2C009680002200234D494CE0002C38D14C4E9C
:103C3C00DFF8308137464FF0FF35B8F8003036F8F2
:103C4C0014009BB2834208BF25B2AC424FEA440A2F
:103C5C0003D10134042CF0D10FE0DFF80C9149466C
:103C6C00FFF78CFF0128F4D0B9F8001037F80A00E0
:103C7C00FFF716FF0028ECD06AE00022002336493B
:103C8C000120FDF775F9002861D10290334801231A
:103C9C0004900593FFF7F2FE00284FD0002057E068
:103CAC004FF6FF739C424ED110460492FFF7E6FE8E
:103CBC0028B901A902A8FDF7C9F9002847D126495E
:103CCC00002200230120FDF753F93EE0002C3AD0EE
:103CDC008C4202D104921046DCE7214E1C4637463A
:103CEC00DFF888804FF0FF35B8F8003036F8140054
:103CFC009BB2834208BF25B2AC424FEA440A03D1BF
:103D0C000134042CF0D10FE0DFF85C904946FFF74A
:103D1C0035FF0128F4D0B9F8001037F80A00FFF786
:103D2C00BFFE0028ECD013E0002200230B49012039
:103D3C00FDF71EF958B902900748A8E701A902A897
:103D4C00FDF784F901E0FFF7EBFE0028A6D080B266
:103D5C0006B0BDE8F08700BF00F0000800F80008CE
:103D6C001C05002006F000088205002006F800085B
:103D7C002DE9F04786B007460E46FFF791FE8028E6
:103D8C0004464BD10023274D0193274B29881A88D1
:103D9C0089B292B219B1002A3FD1984601E0A846E7
:103DAC001D464EF6EE62002329460120FDF7E0F891
:103DBC0088BB31463846FFF773FE044670BB1B4E7A
:103DCC00DFF86C9006F1080A36F8020F874202D130
:103DDC00B245F9D10DE01649FFF7D0FE0128F7D016
:103DEC00B9F800103088FFF75BFE0028F0D00446CD
:103DFC0014E00023012601A902A80293CDF810803B
:103E0C000596FDF723F930B90022002329463046E8
:103E1C00FDF7AEF810B184B200E0AB24204606B03A
:103E2C00BDE8F08700F0000800F800081A05002033
:103E3C008205002030B5104D104BA988188989B225
:103E4C006222490002FB00116424B1FBF4F11981D8
:103E5C00E988588989B2490002FB0011B1FBF4F1E1
:103E6C002889598180B29989400002FB0102B2FB7A
:103E7C00F4F29A8130BD00BF900500201407002099
:103E8C000268044B9A4201BF034A13680133136062
:103E9C00704700BF000800408405002008B54FF4AF
:103EAC0000510348FDF70AFAFA20FCF77FFAF6E70F
:103EBC000010014010B5012396B00C934FF48033E1
:103ECC000D930022022414930CA84FF4E0130E92CD
:103EDC0013941593FDF7F0FD08B1FFF7DFFF0F23E7
:103EEC00019303904FF480630590214601A802943E
:103EFC000493FEF77DF80028EFD1122306930B9064
:103F0C004FF4004306A80893FEF72CF9044600284A
:103F1C00E3D1FEF721F94FF47A73B0FBF3F0FCF721
:103F2C0029FD0420FCF73CFD224621464FF0FF30D2
:103F3C00FCF7E0FC16B010BD2DE9F04F8A4C8DB0AB
:103F4C00FCF714FAFFF7B6FFA369002243F0100345
:103F5C00A361A3694FF4005103F010030493049B75
:103F6C00A369824843F02003A361A369012503F0F0
:103F7C0020030593059BA3694FF0200943F004032C
:103F8C00A361A3694FF0020A03F004030693069B96
:103F9C00A3694FF0030843F00803A361A369744EAF
:103FAC0003F008030793079BFDF784F900222021F7
:103FBC007048FDF77FF94FF4005308A96B4808933C
:103FCC000995CDF82CA0FDF78FF80DEB0901694888
:103FDC00CDF820900995CDF82C80FDF785F8636914
:103FEC0000222B436361636911462B4003930B2022
:103FFC00039BFCF77FFC0B20FCF7B0FC5E4B4FF4F3
:10400C00602233604FF48073B36005270023304681
:10401C00F5607361F26173603761FCF7B9FB0028DE
:10402C0040F03581089008A9304609950A95FCF7AF
:10403C0005FA002840F02B8108A930460895CDF8E8
:10404C0024A0FCF7FBF9002840F0218108A9304698
:10405C00CDF820A0CDF82480FCF7F0F9002840F032
:10406C001681042408A93046CDF820800994FCF769
:10407C00E5F9002840F00B8108A93046089409970F
:10408C00FCF7DCF9002840F002813C4B3C4A4FF431
:10409C00827483E814004FF400729860D860186141
:1040AC0058619A611862586298620A221846C3F8DD
:1040BC001C90DA62FEF788FB0446002840F0E7808B
:1040CC0000F0D6FA2F483049482280E806006422D6
:1040DC008460C2600461FEF7DDFC8046002840F07D
:1040EC00D6802A4DFCF7FCFEFFF770FD2849288886
:1040FC00FFF744FD27496888FFF740FD264C274908
:10410C00A888FFF73BFD2649E888FFF737FDFCF749
:10411C00F9FE84F80280DFF898803A46214930464F
:10412C00FCF786FAC146134801222021FDF7C2F89C
:10413C001448FEF79BFBD8F80030002BFBD011483D
:10414C00194FFEF79FFB0023C9F80030022240F6FE
:10415C00B83339460948FEF73EFA144E50B30328DB
:10416C0000F2978093E000BF001002400010014065
:10417C00540600200008014000240140BC06002029
:10418C000030014018060020000800401C050020EB
:10419C00160500201A050020140700201805002021
:1041AC0026050020900500208C05002088050020A5
:1041BC00840500203B786070FF2BE0706BD05A07B1
:1041CC0042BFA34A012151706278D8074CBF42F01C
:1041DC00020222F002026270627899074CBF42F030
:1041EC00040222F00402627013F0080F637814BF0B
:1041FC0043F0080323F0080363707B78DA0744BFAD
:10420C000122E270E27898074CBF42F0020222F0E1
:10421C000202E270E27859074CBF42F0040222F02D
:10422C000402E270E27818074CBF42F0080222F058
:10423C000802E270627899064CBF42F0100222F03C
:10424C0010026270627818064CBF42F0200222F015
:10425C0020026270627859064CBF42F0400222F094
:10426C004002627013F0100F637814BF63F07F0389
:10427C0003F07F0363706378062B0CD1744BDB78EF
:10428C00012B02D0022B06D10023336003E0FFF791
:10429C0005FEFF236370002220216E48FDF70AF80B
:1042AC006D4A6E481388B0F800C09BB24FF0600B9B
:1042BC009B000BFB0C334FF0640AB3FBFAF39BB27D
:1042CC00DFF8BCC103805088BCF8002080B28000AD
:1042DC000BFB0202B2FBFAF2DFF8A0A192B2BAF821
:1042EC0000004FF0010E9042594984F800E0ACF800
:1042FC00002019D95A4800889842887802D960BBA6
:10430C00022029E0DFF860E1BEF800E09E4508D20B
:10431C0018BB397811F0400F14BF40212021A17037
:10432C001BE0D0B9082017E04E480088904212D20A
:10433C004B4800889842887803D970B981F802E01C
:10434C000BE0494F3F889F4202D230B9102003E066
:10435C0018B9042000E000208870316819B9A380D6
:10436C00E280424F16E00022082322716371A27191
:10437C00E371F6E73E4B1B68002BFBD03D48FEF784
:10438C0081FA0023C9F80030D7F8183233B193F80A
:10439C0050301BB13748FEF769FAEBE7364F3988D6
:1043AC0029B90E222A493148FFF73FF8BBE6002312
:1043BC0033602B4A03238DF8203001238DF82130F4
:1043CC001388DFF8A4B08DF823301B0A8DF8243045
:1043DC00BBF80030234E8DF825301B0A8DF82630A3
:1043EC00BAF8003002298DF827304FEA13238DF8E4
:1043FC00283033888DF829304FEA13238DF82A3072
:10440C0019D10192FCF76CFD019A28881188FFF7ED
:10441C00AFFCBBF800106888FFF7AAFC174BA88804
:10442C001988FFF7A5FC3188E888FFF7A1FCFCF799
:10443C0069FD0A2000E03220FBF7B8FF0B2208A927
:10444C000A48FEF7F2FF00287FF46DAE38806AE66A
:10445C0014070020000801409005002028050020CA
:10446C0016050020260500201A0500202407002030
:10447C0084050020180600209A050020180500204D
:10448C002405002007B5204B03209A6942F0010255
:10449C009A619B6903F001030193019BFCF718FAE5
:1044AC00002211466FF00B00FCF724FA0022114693
:1044BC006FF00A00FCF71EFA002211466FF009009B
:1044CC00FCF718FA002211466FF00400FCF712FA00
:1044DC00002211466FF00300FCF70CFA0022114683
:1044EC006FF00100FCF706FA002211464FF0FF3086
:1044FC00FCF700FA054A536823F0E06343F00073BD
:10450C00536003B05DF804FB001002400000014052
:10451C0030B51A4B026887B09A4205462BD103F589
:10452C006C439A69164C42F400729A619B69154867
:10453C0003F400730193019B1F23029302A903232D
:10454C000393FCF7D1FD80220F4BE2604FF4807295
:10455C0022614FF480622360626100232022204696
:10456C006360A360A261E361FCF72BFA08B1FFF76B
:10457C0095FC2C62656207B030BD00BF0024014081
:10458C008406002000080140080002407FB5154B4E
:10459C0002689A4222D103F560439A6902A942F457
:1045AC0080529A619B69104803F480530193019BDC
:1045BC00282302930223039303230593FCF794FD12
:1045CC001023029302A90023074803930493FCF7DA
:1045DC008BFD064A536843F00103536007B05DF846
:1045EC0004FB00BF00300140000C01400000014002
:1045FC0007B50D4B02689A4212D103F50233DA6902
:10460C001E2042F00402DA61DB69002203F004038D
:10461C0001931146019BFCF76DF91E20FCF79EF9E6
:10462C0003B05DF804FB00BF000800407047FEE7D4
:10463C00FEE7FEE7FEE770477047704708B5FBF7EB
:10464C00A7FEBDE80840FCF7B8B900000148FEF72A
:10465C0033B900BF180600200148FCF757BF00BF54
:10466C00480900200148FCF70BBA00BF8406002063
:10467C0010B5074C002207492046FEF7ECFE2046F9
:10468C000549FEF7FDFE2046BDE81040FEF7FFBED3
:10469C00240700202C0500202C04002007B50D4B0E
:1046AC0002689A4212D103F5DA33DA69142042F423
:1046BC000002DA61DB69002203F400030193114666
:1046CC00019BFCF717F91420FCF748F903B05DF8CF
:1046DC0004FB00BF005C004000F57B71D0F81C04AB
:1046EC00FEF7ECBE00EB4113D3F81C22D0F81C04EF
:1046FC00FEF711BF00EB4113DA6BD0F81C04FEF788
:10470C003BBFD0F81C04FEF7B6BF10B50446012120
:10471C00D0F81C04FEF79DFFD4F81C04BDE8104033
:10472C00FEF778BF10B50446D0F81C04FEF794FFD2
:10473C00A36923B1024A136943F00603136110BD48
:10474C0000ED00E010B58369044633B1064A1369E5
:10475C0023F006031361FFF7ADFBD4F81C04BDE88E
:10476C001040FEF782BF00BF00ED00E010B504461C
:10477C0019491A48042380E80A000223C0F81C4493
:10478C00836003220361C4F820020023C2608361AA
:10479C00C361FCF797FD08B1FFF780FB00221146BF
:1047AC002023D4F82002FDF76EF96023002280212B
:1047BC00D4F82002FDF767F9A02300228121D4F858
:1047CC002002FDF760F9E02300220121D4F8200239
:1047DC00FDF759F9002010BD005C0040480900208D
:1047EC0008B5D0F82002FCF7D7FD002008BD10B5A5
:1047FC001C46D0F8200213462246FCF7F8FD002098
:10480C0010BD08B5D0F82002FCF714FE002008BD3E
:10481C0008B5D0F82002FDF7EAF8002008BD08B56D
:10482C00D0F82002FDF70CF9002008BD0A06D0F8DC
:10483C00203245BF01F07F0103EB411303EB411321
:10484C0093F82A0058BF93F80A02704708B5D0F8BD
:10485C002002FCF7B8FD002008BD08B5D0F82002F6
:10486C00FCF734FE002008BD08B5D0F82002FCF798
:10487C0002FE002008BD08B5D0F82002FCF71FFE90
:10488C0008BD0000004870479C0500207047704729
:10489C0012230B80004870474C05002004230B802A
:1048AC00004870474805002010B5044C0A460448DF
:1048BC002146FFF794F8204610BD00BF680D00207C
:1048CC008449000810B5044C0A4604482146FFF7F9
:1048DC0086F8204610BD00BF680D002094490008E2
:1048EC0010B5044C0A4604482146FFF778F82046D8
:1048FC0010BD00BF680D0020AB49000810B5044C7A
:10490C000A4604482146FFF76AF8204610BD00BF4E
:10491C00680D0020B849000810B5044C0A4604483C
:10492C002146FFF75CF8204610BD00BF680D002043
:10493C00C3490008F8B500BFF8BC08BC9E467047D8
:0C494C00F8B500BFF8BC08BC9E467047E0
:1049580002030405060708090A0B0C0D0E0F1010B8
:1049680001020000430000000000002000000000D9
:10497800000000000102030406070809496E746577
:104988007242696F6D657472696373005368696612
:104998007465722F506564616C7320416461707432
:1049A80065720030303030303030303030314200D5
:1049B80048494420436F6E66696700484944204966
:0C49C8006E74657266616365000000009B
:0849D400D101000831010008C7
:0449DC000D010008C1
:1049E00000000000EC02002054030020BC03002063
:1049F00000000000000000000000000000000000B7
:104A000000000000000000000000000000000000A6
:104A1000000000006C4900080000000000000000D9
:104A20000000000000000000000000000000000086
:104A30000000000000000000000000000000000076
:104A40000000000000000000000000000000000066
:104A50000000000000000000000000000000000056
:104A60000000000000000000000000000000000046
:104A70000000000000000000000000000000000036
:104A80000000000000000000010000000000000025
:104A90000E33CDAB34126DE6ECDE05000B000000EA
:104AA0000000000000000000000000000000000006
:104AB00000000000000000000000000000000000F6
:104AC00000000000000000000000000000000000E6
:104AD00000000000000000000000000000000000D6
:104E0000000000000000000000A24A04F333000884
:104E1000CD3300081D330008000000000000000032
:104E2000853200089D3200080000000000000000EC
:104E30000000000079320008793200087932000859
:104E40009132000805010905A10185010509190133
:104E5000290F150025017501950F81029501750136
:104E60008101A1000990099109930992150025017A
:104E700035004501750195048102C09501750481D5
:104E80000105010901A100090109020933093409D9
:104E900035150026FF0F751095058102C0850209A2
:104EA000017510950591828503090275109505819C
:104EB00082C00000092111010001226E00000000E3
:104EC0000A0600020000004001000000090229005B
:104ED000010100E032090400000203010000092181
:104EE00011010001226E00070581030A0001070578
:104EF0000103400001007805F401C409011002100B
:104F0000031004100008280A000800009D4800084B
:104F1000A9480008B5480008D1480008ED48000835
:104F20000949000825490008040309041201000288
:104F30000000004009120DF0070201020301000009
:04000005080002BD30
:00000001FF
