:020000040800F2
:1000000000180020493900082505000827050008C8
:1000100000000000000000000000000000000000E0
:10002000000000000000000000000000290500089A
:1000300000000000000000002B0500082D0500084E
:10004000B9390008B9390008B9390008B9390008C8
:10005000B9390008B9390008B9390008B9390008B8
:10006000B939000839050008B9390008B93900085C
:10007000B9390008B9390008B9390008B939000898
:10008000B93900080000000000000000B93900087C
:1000900000000000B9390008B9390008B939000872
:1000A00000000000B9390008B9390008B939000862
:1000B000B939000800000000B939000849050008F6
:1000C00010B5064C2378002B07D1054B002B02D02E
:1000D000044800E000BF0123237010BD040100208C
:1000E000000000001C3A0008044B10B5002B03D0A0
:1000F0000349044800E000BF10BDC04600000000F6
:10010000080100201C3A000802B471464908490061
:10011000095C49008E4402BC7047C04603B4714676
:10012000490840004900095A49008E4403BC704701
:10013000002243088B4274D303098B425FD3030A26
:100140008B4244D3030B8B4228D3030C8B420DD339
:10015000FF22090212BA030C8B4202D312120902C7
:1001600065D0030B8B4219D300E0090AC30B8B4205
:1001700001D3CB03C01A5241830B8B4201D38B03B3
:10018000C01A5241430B8B4201D34B03C01A524158
:10019000030B8B4201D30B03C01A5241C30A8B429B
:1001A00001D3CB02C01A5241830A8B4201D38B0286
:1001B000C01A5241430A8B4201D34B02C01A52412A
:1001C000030A8B4201D30B02C01A5241CDD2C3099C
:1001D0008B4201D3CB01C01A524183098B4201D318
:1001E0008B01C01A524143098B4201D34B01C01A03
:1001F000524103098B4201D30B01C01A5241C3087B
:100200008B4201D3CB00C01A524183088B4201D3E9
:100210008B00C01A524143088B4201D34B00C01AD5
:100220005241411A00D20146524110467047FFE741
:1002300001B5002000F006F802BDC0460029F7D045
:1002400076E770477047C046122301480B8070471D
:1002500020000020042301480B8070471C00002070
:1002600010B5044C0A000448210000F0D0FD200025
:1002700010BDC04654010020543A000810B5044C8B
:100280000A000448210000F0C2FD200010BDC04655
:1002900054010020643A000810B5044C0A000448D8
:1002A000210000F0B4FD200010BDC0465401002024
:1002B0007B3A000810B5044C0A000448210000F005
:1002C000A6FD200010BDC04654010020883A000859
:1002D00010B5044C0A000448210000F098FD2000ED
:1002E00010BDC04654010020933A000807B50B4BDF
:1002F00002689A4211D18023094A1B04D1691F2048
:100300001943D161D2691340002201931100019B6E
:1003100003F040F81F2003F06DF807BD005C0040BB
:10032000001002400100872310B59B00ED31FF3122
:10033000C05800F0C7FD10BD1C234B43C318FC334D
:10034000DA69872310B59B00C05800F0EFFD10BD9F
:100350001C234B43C3189A6B872310B59B00C058CE
:1003600000F01EFE10BD872310B59B00C05800F0A2
:10037000A5FE10BD70B587240500A4000121005919
:1003800000F087FE285900F061FE70BD872310B58C
:1003900004009B00C05800F07FFEA369002B04D02E
:1003A0000621024A13690B43136110BD00ED00E002
:1003B000836910B50400002B06D00621054A136995
:1003C0008B43136100F052F987239B00E05800F043
:1003D0006EFE10BD00ED00E0872370B505001648E5
:1003E0009B00C550154B8824036008234360063BDF
:1003F0008360032203610023A4002851C26083614B
:10040000C36101F09FFE002801D000F0FFFA002236
:1004100028591100182301F079FE28595823002289
:10042000802101F073FE802328595B000022812186
:1004300001F06CFE002070BD54030020005C004001
:10044000882310B59B00C05801F0C2FE002010BDEB
:1004500010B514001A0023008824A400005901F0EC
:10046000D7FE002010BD882310B59B00C05802F0B5
:100470002FF8002010BD882310B59B00C05802F053
:10048000ABF9002010BD882310B59B00C05802F0C6
:10049000F3F9002010BD88234AB29B00C0581C23EA
:1004A000002A06DA7F221140594343182A3318786C
:1004B00003E04B43C318FF33D87A7047882310B545
:1004C0009B00C05801F08DFE002010BD10B588249F
:1004D000A400005902F044FA002010BD10B5882491
:1004E000A400005902F0B2F8002010BD0048704787
:1004F000200100207047000010B5074C002207497A
:10050000200000F0A2FC0649200000F0B8FC20000A
:1005100000F0BEFC10BDC0467405002000000020A5
:10052000340000207047FEE77047704710B503F0B5
:10053000C1F902F092FF10BD10B5024802F050FE62
:1005400010BDC0460808002010B5024802F008FBA4
:1005500010BDC04654030020012307B50F4A0520F3
:1005600091694042194391619269134000220193BD
:100570001100019B02F00EFF0022022011004042F8
:1005800002F008FF002201201100404202F002FFA9
:100590001021034A13680B43136007BD001002408B
:1005A00000000140F0B51B4B026887B005009A427D
:1005B0002DD18026184BB6009A69902032439A615B
:1005C0009B69002733400093009B1F23C0050193C4
:1005D00001A91C3B0293039702F000FD0F4C104B46
:1005E000200023608023E36080231B0163612023BC
:1005F000A36180239B016760A7602661E36102F02D
:100600009BFDB84201D000F001FAEC63656207B0CF
:10061000F0BDC04600240140001002400808002040
:10062000080002407FB502680E4B9A4217D1802322
:100630000D4A5B019169902019439161926901A96A
:1006400013400093009BE0230193DE3B02930322BF
:100650000023C00503930492059302F0BFFC07B08A
:1006600000BDC0460030014000100240112370B5AB
:1006700098B00B93013B119380235B021593802369
:100680000024012502265B030BA816930C951095F8
:100690001496179401F0F6F90723290001A8019395
:1006A00002960394049401F043FC80239B0205937B
:1006B000802305A80A9301F061F901F013FDFA21E6
:1006C0008900FFF735FD02F09FFE042002F0B6FE20
:1006D000012022002100404202F05CFE18B070BDF3
:1006E000F0B589B003F0D6F8FFF7C0FF8023954C32
:1006F0009B02626902211A43626162699248134057
:100700000193019B80236269DB021A436261626983
:10071000002513400293002201260227029B02F0CB
:1007200005FD032303A988480397069304960595BE
:1007300002F054FC63692A00334363616369290052
:10074000334000930920009B02F024FE092002F0B0
:1007500051FE7E4C7E4B2000236008236361C22340
:10076000FF33A362BB3BFF3BA3636560A560E5600D
:100770002661A561E56126626562E56226636563BF
:1007800002F0BEFE802303A95B01200004930395C1
:10079000059602F0EFFF03A92000039602F0EAFF9E
:1007A00003A92000039702F0E5FF032303A920001B
:1007B000039302F0DFFF042303A92000039302F058
:1007C000D9FF644F644B38003B6082235B007B6041
:1007D000E023DB00FB6080239B00BB61E93BFF3B28
:1007E000FB61113BFB629B197B63BD603D617D61D9
:1007F0003D627D62BD623D6300F0E6FDFFF77CFE79
:1008000005225649200002F01FFF012202214E4816
:1008100002F08CFC012003F05BF8514D514B022299
:100820002900380000F08EFF4F4CFF23002879D1BB
:10083000F02363702B785B0701D5F12363702B786D
:100840000222334202D06378134301E0637893437A
:1008500063702B7804229B0702D56378134301E071
:1008600063789343082263702B78134203D0637834
:100870001A43627002E06378934363706B7833428B
:1008800002D0E378334301E0E378B3430222E3701C
:100890006B78134203D0E3781A43E27002E0E37806
:1008A0009343E37004226B78134203D0E3781A4336
:1008B000E27002E0E3789343E37008226B7813421E
:1008C00003D0E3781A43E27002E0E3789343E370E5
:1008D0006B7810229B0602D56378134301E063789E
:1008E000934363706A78202152B26378002A01DA58
:1008F0000B4300E08B43402263706B78134203D0BC
:1009000063781A43627002E06378934363706B7894
:10091000DB0604D5802263785242134302E07F2332
:1009200062781340002202210748637002F0FEFB48
:100930000A2221000D48267000F063FC012002F01D
:10094000C7FF62E700100240000400484008002092
:1009500000240140980700200030014038010020A9
:1009600034010020B80B0000FC07002074050020B3
:10097000F420214AFF30516810B589B21F4B8142E3
:1009800014D811681E4889B2814201D8022122E0A0
:1009900011681C4889B2814206D91B490878402158
:1009A000084218D1203916E0082114E05168154892
:1009B00089B281420ED91168114C89B2A14201D885
:1009C000012108E0116889B2814201D9102102E0B9
:1009D000042100E000219970916889B21971090A17
:1009E0005971D168126989B292B299711A72090A61
:1009F000120AD9715A7210BD38010020FC0700207C
:100A000077050000280A0000340100207047130019
:100A1000FA2210B50224520084500A008361C36197
:100A20000021FFF753FD002010BD10B513000A0090
:100A30000021FFF74BFD002010BD10B513000A0088
:100A40000021FFF74BFD002010BDFA2304225B00BC
:100A500010B5C25000231A001900FFF737FD00201F
:100A600010BDFA2305225B0010B5C25000231A0006
:100A70001900FFF733FD002010BD0B7803704B7891
:100A80004370CB788A781B02D31843804B790A795C
:100A90001B02D3188380CB798A791B02D318C380B9
:100AA000704710B504008021FFF7E5FC002120000D
:100AB000FFF7E1FC10BD0000F7B5040048780D0019
:100AC000092800D90EE1FFF729FBD700F6000D0138
:100AD000ED000D0179000A000D01C6009A004B8857
:100AE000180A0138062800D9FCE0FFF717FB0700B9
:100AF00010001F00FB00FB003C00480084236A46F6
:100B00009B00E358207C1B68911D984744E0852397
:100B1000227C9B00E358002A01D19B6A00E0DB6A3B
:100B20006A46901D98470223437035E0D8B20528E5
:100B300000D9D7E084229200237CA258FFF7E4FA80
:100B4000030507090B0D526808E0926806E0D268B9
:100B500004E0126902E0526900E0926969461800F7
:100B60000631904718E0237C002B00D0BAE08523A3
:100B70006A469B00E358901D5B6B98470CE0237C12
:100B8000002B00D0AEE085236A469B00E358901D01
:100B90001B6B98470723C7E76B469E1D31880029CA
:100BA00000D1A3E0EA88002A00D19FE00B1C91420B
:100BB00000D9131C9AB2338001006FE08B88002BA0
:100BC00000D08FE0CB88002B00D08BE0FE274E8832
:100BD0007F337F001E40E35D032B00D182E0FF23C3
:100BE0005B00E65431002000FFF768FC2000FFF7AF
:100BF0002CFF0223002E00D10123E35576E08978F3
:100C00003B4E317001296DD8FE235B00E25C022A65
:100C100002D0032A07D065E000295FD0012103221A
:100C20006160E25411E0002906D102222000E25462
:100C3000616000F03FF951E0616801294ED0C9B20E
:100C4000200000F037F931786160200000F025F9CC
:100C5000022843D146E0CA88012A43D1FE235B0023
:100C6000E35C022B03D0032B3CD1211D16E00023B3
:100C70002100A360083111E0FE235B00E35C023B2E
:100C8000012B2FD80123E36081239B00E358002B25
:100C900001D00323E360210002220C312000FFF782
:100CA000B6FE23E04B88012B20D181229200A35075
:100CB00085239B000DE0FE235B00E35C023B012BE0
:100CC00010D84B88012B11D1812300229B00E250C8
:100CD0001033E35829009B68200098472000FFF755
:100CE000B4FE03E029002000FFF7DBFE0020FEBD7C
:100CF0004C010020FE2370B55B00C35C04000D00B6
:100D0000032B0ED10B79012B0BD885239B00C358E5
:100D10009B689847EB88002B07D12000FFF795FED2
:100D200003E029002000FFF7BCFE002070BD70B575
:100D30000D00602304008A882878D1B20340202B5C
:100D400007D1F533FF33E35829009B68200098470B
:100D50005BE06B78012B13D0002B2BD0032B54D1ED
:100D6000FA33FF33E35C022B2CD0032B49D16B8881
:100D7000002B14D14B0612D02000FFF77CFB0EE0B5
:100D8000FE235B00E35C022B1CD0032B39D16B8864
:100D9000002B3AD14B0609D02000FFF774FB8523C6
:100DA0009B00E35829009B68200098472000FFF72C
:100DB0004CFE2AE0FE235B00E35C022B02D0032BF7
:100DC00006D01EE04B0620D02000FFF754FB1CE0AD
:100DD0007F250D40130601D5013500E010352D01AA
:100DE000651920000435FFF756FB002802D00123C7
:100DF0002B6000E02860022229002000FFF707FE98
:100E000003E029002000FFF74CFE002070BD002306
:100E100030B5984218D0C45C5D1C002C01D02B006A
:100E2000F9E7DBB25B00023313800B7003234B70D6
:100E3000013B0578002D07D05A1CCD54D2B20233A5
:100E40000130DBB28C54F4E730BD10B5022300282A
:100E500013D085239B00C458002C01D00024C4501B
:100E6000002902D084239B00C150FE2301215B0096
:100E7000C1540270FFF7B0FA0023180010BD02231E
:100E8000002903D085239B00C15000231800704720
:100E900010B5FFF7D5FA002010BD85239B00C3587D
:100EA00010B5002B01D1022003E01B6898470028F1
:100EB000F9D110BD852310B59B00C3585B689847D6
:100EC000002010BD82239B0070B5C51804002800C7
:100ED000FFF7D3FDFA2301225B00E250124BE25AE6
:100EE000163BE2501033E15CEA3BFF3B0B40012B29
:100EF0000DD0002B06D0022B0ED129002000FFF7C9
:100F000016FF0EE029002000FFF7D6FD09E02900BA
:100F10002000FFF7EFFE04E07F2320009943FFF756
:100F2000AAFA002070BDC0460E02000070B5040091
:100F30001500002926D1FA235B00C358032B2DD1BD
:100F40000530FF308368C26893420AD99B1A8360D8
:100F50009A4200D91A0092B229002000FFF76DFDD5
:100F60001CE085239B00E3581B69002B06D0FE2262
:100F70005200A25C032A01D1200098472000FFF70D
:100F800064FD0BE085239B00C3589B69002B05D0B3
:100F9000FE225200825C032A00D19847002070BDD7
:100FA000F8B50D0004001100002D40D1FA235B00BC
:100FB000C358022B33D1C269066AB24205D9921BCB
:100FC000C26192B2FFF731FD12E08769310038004B
:100FD000FFF734F90D1E12D1BE4210D8FC26760060
:100FE000A3599F420BD20A002000FFF71EFDA55116
:100FF0002B002A0029002000FFF770FA0FE085235C
:101000009B00E358DB68002B06D0FE225200A25C56
:10101000032A01D1200098472000FFF722FD8023FA
:101020009B00E25C012A0FD10022E2540CE08523F0
:101030009B00C3585B69002B06D0FE225200825CE5
:10104000032A01D1290098470020F8BD002270B57D
:10105000040011004023FFF7FBF923004025FC3377
:101060005D6100222B0080212000FFF7F1F9FE23B3
:1010700001225B002562E2541C33E358002B06D0AA
:1010800085239B00E35821795B6820009847002066
:1010900070BD017400207047FE23FE225B00C15C1E
:1010A000FF328154FA3AFF3AC25400207047FE23BF
:1010B000FF33C25C013BC25400207047FE2310B5D1
:1010C0005B00C35C032B06D185239B00C358DB69FF
:1010D000002B00D09847002010BD00002223038081
:1010E00000487047DC00002086239B00C358002086
:1010F000187370470A23038000487047D00000200F
:101100008623602270B50C789B000500C3581440FC
:1011100021D0202C49D148780238092816D8FEF76A
:10112000F3FF0F081515151515150B058A781A60AC
:101130003BE00122190005E04A88120A5A6034E0B7
:101140000122191D2800FFF762FC2EE02800FFF79E
:10115000A8FC02242AE04A780A2A1CD00B2A21D0B3
:10116000062A23D14B881B0A222B07D1CB881A1CB5
:10117000562B00D9562292B20D490FE0212B07D1F0
:10118000CB881A1C092B00D9092292B2094905E023
:101190002100220002E00833190001222800FFF795
:1011A00036FC03E08A789A6000E00024200070BDDD
:1011B0006C000020C400002070B586250400812149
:1011C000AD00FFF750F96059002803D0FFF792F9FE
:1011D00000236351002070BD10B50A230322812132
:1011E0000400FFF735F91020FFF780F986239B00F4
:1011F0000200E0500120002A02D0002318001373DF
:1012000010BD1300FE2210B55200825C032A0BD1E0
:10121000862292008458227B002A05D10132227353
:101220000A008121FFF752F9002010BDE021036878
:1012300010B55A688A435A6082224168520091422E
:101240000CD18021826809028A4203D08021C90022
:101250008A4203D140211A688A431A608022846A34
:101260009201944206D11A680749114019601A6820
:1012700022431A60030001225D331A7000235C30A0
:101280000370032010BDC046FFDF0000F0B585B03D
:1012900006000D0017001C0002F014FB019002ABC9
:1012A0003168DA1D8B682B40BB4218D0C023DB00AD
:1012B0009D4205D1002F03D10B7BDBB21370137855
:1012C000631CEFD0002C03D13000FFF7AFFF07E025
:1012D00002F0F8FA019BC01A8442E0D8F4E700203B
:1012E00005B0F0BDF7B505000E0001921C0002F03C
:1012F000E9FA07002A689368019933408B420DD0C0
:10130000631CF8D0002C03D12800FFF78FFF06E004
:1013100002F0D8FAC01B8442ECD8F5E70020FEBDED
:1013200070B50B000D00C021002249010400FFF739
:10133000ADFF021E06D12B0080212000FFF7D2FF57
:10134000002804D020230320226E1343236670BD9F
:101350008223426870B55B0004000E009A420DD1F2
:10136000802283681202934203D08022D2009342EB
:1013700004D14021226813688B431360330000229C
:1013800080212000FFF7AEFF051E16D18223626880
:101390005B009A4216D18022A3681202934203D0C6
:1013A0008022D20093420DD1C02133000022C90017
:1013B0002000FFF76BFF002804D020230325226EB6
:1013C00013432366280070BDF8B504000120002CEB
:1013D0005DD025005D352B78DBB2002B05D12200D6
:1013E0005C3213702000FFF71DF9022340212B709F
:1013F0002368E0681A6800268A43E0211A60C90061
:10140000884205D9F0221201904206D1320006E04E
:1014100080225201884201D101E03200A662266B8F
:10142000002E05D1884201D9022100E0012121636B
:10143000A7686668A1693E4327693E4367693E43E2
:10144000E7693E43276A3E43A76A3E438027BF00C1
:101450000F403E431E60266B022E04D180271E687B
:101460003F013E431E60666A090C3043666B0643CB
:101470000420014031430A435A60E26A00201A61A5
:10148000D969034A0A40DA61012320662B70F8BD4E
:10149000FFF70000F0B5040087B01E0003911700AD
:1014A00002F010FA23005C33029001931B780220B3
:1014B000012B00D13EE10123019A050013702300A6
:1014C0005D331A78012A00D02DE1039A002A00D159
:1014D00028E1002F00D125E1002E00D122E10522D4
:1014E00025001A70002308352366A31D2764EE87A4
:1014F000DE87039BA06AA3638023E687A6879B0100
:10150000984207D121688C4A0B681A400A600B6820
:1015100003430B60E022E1682368D200914201D8C6
:10152000012E03D95868854A024003E080205A689A
:101530004001024340205A6023681A68024202D1E7
:101540001A6802431A60E023DB00994203D8802620
:101550000127760152E00125022680235B019C468B
:101560002200E38F0832002B31D021688868304296
:1015700013D0A06B013B07889BB20230CF60A06301
:10158000E387002B09D1A36A180080239B019842AE
:1015900003D160460B6803430B60D38F002B0BD045
:1015A00021688B682B4207D0236CC96819800233ED
:1015B0002364D38F013BD3870C9B0133D0D002F03F
:1015C00081F9029BC01A0C9B8342C6D88DE0D38F51
:1015D000002BE5D18023A26A9B019A4200D08AE0C9
:1015E0005AE0022021688B6803420BD123000833A4
:1015F000DB8F002B29D10C9B013345D1E28F002AD0
:10160000EFD11DE0A36B012A06D91888023A0233F4
:10161000C860A363E28706E05A1CA2631B780B73C1
:10162000E38F013BE387E38F002BDFD18022A36AA6
:1016300092019342DAD12268136833431360D5E7ED
:1016400023000833DB8F002BC4D022689168394215
:10165000D1D0216C012B0DD9D3680B8002312164CC
:10166000EB8F023B9BB2EB87012BC4D8536833430B
:101670005360C0E74B1C2364137B22000B700832BD
:10168000D38F013BD387B6E702F01CF9029BC01A47
:101690000C9B8342B2D828E001220C9B1100200051
:1016A000FFF720FE002804D00223226E1343236696
:1016B0001BE004AA951DF022E16823681201914203
:1016C00002D1DB689BB214E01B7B266B2B802B883E
:1016D000022E10D101220C9B11002000FFF702FE08
:1016E000002804D0236E1E43266603251BE02368D2
:1016F0001B7B2B802B88226800259368DB0606D590
:101700000223216E01350B4323660D4B93600C9928
:101710002000FFF705FE002801D020232366236E5A
:10172000002B00D0012501235D3423700023280005
:10173000019A137007B0F0BDFFDF0000FFEFFFFF5D
:10174000EFFF0000F0B5040087B016001D000F0089
:1017500002F0B8F88223626803905B009A420AD1D3
:10176000A368002B07D1009533003A003900200010
:10177000FFF790FEF8E023005C331A780220012A7C
:1017800000D1F1E001221A709B1802931B78DBB2A2
:10179000934200D0E2E01800002F00D1DEE0002EDE
:1017A00000D1DBE00423029A210013700023A21D64
:1017B000083123662764D687CE87A363A387E38790
:1017C0008023A76A9B019F4209D12368674A186852
:1017D000013E104018601A683A431A60CE87E02232
:1017E000E1682368D200914203D95868604A0240F8
:1017F00003E080205A68400102435A608022A068BA
:101800001202904203D118685A4A02401A604020DE
:101810001A68024202D11A6802431A602600E023C5
:101820000836DB000127994226D8F38F002B26D0FB
:10183000226893683B4208D0236C591C2164127BB8
:101840001A70F38F013BF387EFE7002D4CD06B1C30
:10185000EBD002F037F8039BC01A8542E5D843E08D
:10186000226893683B4210D0236CD2681A800233FE
:101870002364F38F013BF387F38F002BF0D1802398
:10188000A26A9B019A4253D10AE0002D2CD06B1C16
:10189000F2D002F017F8039BC01A8542ECD823E07F
:1018A000802122684901136820000B431360012244
:1018B0002B001100FFF716FD002815D1E021E0688C
:1018C0002268236CC900884202D9D2681A8001E0DC
:1018D000127B1A7001222B0011002000FFF702FD7D
:1018E000002803D002232366032037E00E2602A936
:1018F0007618F021E268236809018A4202D1DB6888
:101900009BB213E01B7B33803388E023DB009A42D9
:101910000ED1236B022B0BD101222B0011002000D2
:10192000FFF7E0FC0028DDD123681B7B3380338880
:1019300029002000FFF70CFD002801D0202323669A
:1019400022689368DB0605D50223216E0B432366CC
:10195000094B9360206E431E9841C0B20123029A46
:101960005C3413700023237007B0F0BDFFDF00006C
:10197000FFEFFFFFFFBFFFFFEFFF0000F0B50368C1
:1019800085B00500DB034BD580238027384C5B05F1
:10199000E269384E1A43E261E2697F001340039323
:1019A000039B33683B43336001F08CFF0190336845
:1019B0003B4207D101F086FF019BC01A6428F6D98B
:1019C000032053E06968226A294B4A40C0218900FC
:1019D0000A4225D08027196A1A6A0E007F023A430C
:1019E0001A621F6A2448254A06403A401A621E625B
:1019F00002260190314206D1019A236A13406A6897
:101A0000134323620CE001F05DFF0700236A3342B9
:101A1000F2D101F057FF1A4BC01B9842F6D9CFE71D
:101A20002B68DA0706D5032011490A6B8243A868A0
:101A300002430A639A0606D510200D490A6B8243B9
:101A4000E86802430A639A0306D5802008490A6BB6
:101A50008243686902430A6300205B0506D5402281
:101A600003490B6B93432A6913430B6305B0F0BD25
:101A70000010024000700040FFFCFFFFFFFFFEFF70
:101A800088130000F0B5036885B00400DB0703D4B9
:101A900023689B0760D4ACE00C23BD4D6A681A40F4
:101AA000042A0BD06A681340082B0ED1C0236A6841
:101AB0005B02134080225202934206D12B689B03A3
:101AC000E6D56368002BE3D19DE12B68B14FB24EA0
:101AD0003B402B602B6833402B6001F0F3FE0190FC
:101AE00080212A688902AA4B0A4207D001F0EAFE47
:101AF000019BC01A6428F3D903200FE26268012A0F
:101B000014D0002A0BD11A6817401F601A681640BB
:101B10001E6001F0D7FE80260700B60218E0052AF5
:101B20000AD180211A68C9020A431A6080211A6802
:101B300049020A431A60DDE11A6817401F601A68FB
:101B400016401E60D6E101F0BDFEC01B6428D3D84C
:101B50002B683342F7D19BE70C238D4D6A681A42FC
:101B60000BD06A681340082B16D1C0236A685B0249
:101B700013408022120293420ED12B689B0703D59B
:101B8000E368012B00D03EE1F8212B6822698B43EA
:101B9000D20013432B602CE0E3680122002B18D005
:101BA0002B68022613432B6001F08CFE07002B6884
:101BB0007749334205D101F085FEC01B0228F6D9D2
:101BC0009AE7F8200B6822698343D20013430B6025
:101BD0000FE02B68022693432B6001F073FE070091
:101BE0002B68334205D001F06DFEC01B0228F7D9E7
:101BF00082E723681B0703D423685B072FD532E0F5
:101C0000236A0122624D002B0FD06B6A0226134318
:101C10006B6201F057FE07006B6A3342ECD101F0B2
:101C200051FEC01B0228F7D966E76B6A0226934370
:101C30006B6201F047FE07006B6A3342DCD001F0B3
:101C400041FEC01B0228F7D956E701F03BFE534B7B
:101C5000C01B984200D94FE72B6A3342F5D0236866
:101C6000DB0666D4B2E080238027494D5B05EA6934
:101C70004B4E1A43EA61EA697F0013400393039BCA
:101C800033683B43336001F01DFE019033683B42F3
:101C900006D101F017FE019BC01A6428F6D92BE784
:101CA00001222B6A022693432B622B6A0332934351
:101CB0002B6201F007FE07002A6A354B324206D03C
:101CC00001F000FE354BC01B9842F5D914E7A2681D
:101CD000012A02D1196A0A431EE00121002A0BD110
:101CE0001A6A02268A431A621A6A03318A431A62FE
:101CF00001F0E8FD070018E0052A07D104201A6A60
:101D000002431A621A6A1143196202E11A6A8A438B
:101D100004211A621A6A8A431A62FAE001F0D2FDBB
:101D20001E4BC01B984200D9E6E62B6A3342F5D120
:101D300095E76269164D0423012A1BD1696B0226BF
:101D40000B436B636B6B1A436A6301F0BBFD0700C7
:101D50006B6B0F49334205D101F0B4FDC01B022863
:101D6000F6D9C9E6F8204B6BA2698343D20013432E
:101D70004B632BE0053215D1F8216A6B9A436A63F5
:101D80006B6BA2698B43D20013436B631EE0C046AA
:101D900000100240FFFFFEFFFFFFFBFF8813000063
:101DA000007000406A6B0226134301226B636B6B69
:101DB00093436B6301F086FD07006B6B334205D0E4
:101DC00001F080FDC01B0228F7D995E623689B0629
:101DD00003D4626A002A3ED16DE00C23504D6A683C
:101DE0001A409A4209D06A681340082B0DD1C022CC
:101DF0006B6852021340934207D16B6BDB03E8D54B
:101E0000E369012BE5D0012088E0E369002B10D0C5
:101E100080266B6B760233436B6301F053FD070042
:101E20006B6B3342D5D101F04DFDC01B0228F7D9B1
:101E300062E66A6B3B4B802613406B6301F042FD08
:101E4000070076026B6B3342C3D001F03BFDC01B31
:101E50000228F7D950E60C23314D69680B40082B56
:101E6000D1D0314B022A34D12A68802613402B600E
:101E700001F028FD0700B6042A68294B32421CD124
:101E80000F21DA6A8A43216B0A43DA62A16AE06AA7
:101E90005A680843254980240A40802102435A6039
:101EA0001A6849040A431A6001F00CFD0600A404F4
:101EB0002B68234207D0002030E001F003FDC01B57
:101EC0000228D9D918E601F0FDFC801B0228EFD9C1
:101ED00012E62A68802413402B6001F0F3FC060010
:101EE000A4042B682342E6D001F0ECFC801B0228FE
:101EF000F7D901E601F0E6FC80260700B6022B6860
:101F0000334200D0C4E501F0DDFCC01B6428F6D9E3
:101F1000F2E501F0D7FC022607009DE605B0F0BD12
:101F200000100240FFFFFEFFFFFFFFFEFF7FC2FF2A
:101F30000123F7B5494D06002A6801911A408A42EB
:101F40000AD33268930713D5F02045494B68834381
:101F5000B06803434B600BE02A6801999A430A4337
:101F60002A602A681340019A9A42EAD0012073E05D
:101F7000D30707D4012329680198384A19408842B9
:101F800056D35BE07368364C012B03D12268920371
:101F90000FD4EBE7022B03D12268920109D4E5E7C5
:101FA000032B03D1626BD20303D4DFE722689207CD
:101FB000DCD5032162688A431343636001F082FC2D
:101FC00073680700012B0CD10C2263681340042BAB
:101FD000D0D001F077FC234BC01B9842F4D90320EA
:101FE0003AE0022B0BD10C2263681340082BC1D0BE
:101FF00001F068FC1B4BC01B9842F4D9EFE7032BA0
:1020000011D10C22636813409342B3D001F05AFC03
:10201000144BC01B9842F4D9E1E701F053FC114B7B
:10202000C01B9842DBD80C2263681342F5D1A1E7AC
:1020300011689943116012681A4297D133685B079F
:1020400006D50749084B4A681340F26813434B60B2
:10205000002001F00DFC0020FEBDC0460020024023
:102060000010024088130000FFF8FFFF30B5194C44
:1020700089B010222100684601F0C6FC210004ADA1
:1020800010221031280001F0BFFC0C2212484368D6
:102090001A40082A03D00C2A19D1104818E00F2240
:1020A0006C46990C1140645CC16A80200A40A95CAE
:1020B000C022520213404002834206D0934204D110
:1020C0000648FEF735F8604302E00548F9E70448A2
:1020D00009B030BD343A000800100240006CDC0248
:1020E00000127A0010B5FFF7C1FF054B054A5B6887
:1020F0001B061B0FD35CD840034B186010BDC046B5
:1021000000100240A13A00080001002030B51C2454
:102110000D0605D57F2529404C432100283103E0D9
:102120004C4321000931FF314118002A02D18A7243
:102130008B8004E00122CB801B0C8A720B81002073
:1021400030BD000070B504000120002C3DD0EA2510
:10215000FF35635DDBB2002B05D1F4225200A3549E
:102160002000FEF7C3F8032300226355230011006B
:10217000012660682833824208D01A705E70D970D8
:10218000D9601961596101321C33F4E70022230040
:1021900011000933FF33824208D01A705970D97088
:1021A000D9601961596101321C33F4E70020012123
:1021B00023689A1C9E1D5033D187D087F0871880E2
:1021C000024BD387631DD877615570BD00BDFFFFFB
:1021D0008022036812025833198800200A431A80AB
:1021E0007047F42210B55200835C04000220012BDA
:1021F0000DD00123A354002904D1236880314C332E
:10220000198001E0631DD97700231800A35410BD85
:10221000F0B585B0019048B21C24002804DA7F256F
:102220000D406C43283402E04C430934FF34019DD7
:10223000C00F2C197F25E370F423294021700199E8
:102240006070E2605B00C95C0220012900D124E1DA
:1022500001210198C154E078019B1B68032819D81B
:1022600021788F4D89005918FDF74EFF020E070A9D
:1022700008880540802080000AE00888054008E0C2
:1022800008880540C02002E0088805408020C00082
:1022900005430D802178834E880018180588824FE9
:1022A00035403943294389B20180A57A207831002D
:1022B000BC46002D60D11F00657850370395A58876
:1022C0000295039D002D1DD03A88C0001818801873
:1022D0008022D20080180122029D95430580227839
:1022E00092009A181188490604D511880E406F494A
:1022F0000E431680227892009B1819886C4A0A4077
:10230000202134E03E88C00080190126694D18184C
:102310004019029DB543058025783888ED002D18B9
:10232000654818182D183E2A08D95009D20601D13F
:10233000013880B2614A8002104304E05008324202
:1023400000D0013080022880227892009A181088EC
:10235000400404D510880140594801431180227877
:1023600092009B181988574A0A40C02189014A40A7
:10237000614611430A0089E0802580001818028810
:102380006D002A431D0032403A4392B20280227807
:1023900050352888D200121880209A18C0001218D0
:1023A0000120E688424F8643168022782D88D2008D
:1023B0009A1852193F4D521925898543802015805E
:1023C000227865789200C0019A18002D31D11588C5
:1023D000054204D015883A480D40284310802078E3
:1023E000394D800018180288520604D502880A4028
:1023F0002A4392B202802078800018180288114087
:102400000D43ADB2058021782E48890059180A88FD
:102410000240C020800142406046024392B20A80DE
:10242000227892009B181A8817400743BFB21F807A
:102430002EE01688254D064204D010880840284317
:1024400080B21080227892009A181088400604D535
:10245000168816480E4030431080227892009A1851
:10246000108801400D43ADB21580227892009A1871
:1024700011880F4061460F43BFB21780227811497F
:1024800092009B181A880A4061460A4392B21A8049
:10249000F4230020019A5B00D05405B0F0BDC04683
:1024A0008F89FFFF0F0F00008080FFFFC0800000BA
:1024B000BF8FFFFF04040000060400000080FFFF40
:1024C00080C000008FBFFFFFC080FFFF80C0FFFF04
:1024D0004BB2F0B51C220500002B04DA7F20084027
:1024E0004243283202E04A430932FF32AA187F20D1
:1024F000DB0F5370F423014011705B00E95C7D3801
:10250000012900D190E00121E954947A5778296893
:1025100013784648002C20D19B00CB181C88002F34
:102520000DD0640605D51E88414C3440414E3443DD
:102530001C8013789B00C9180A883F4B6CE0640428
:1025400005D51E883A4C34403C4E34431C801378E9
:102550009B00C9180A883A4B5EE080269B00344CE9
:10256000F601CB18002F2AD11F88374204D01F88CC
:10257000324E27403E431E801678324FB6008E19E9
:1025800033885B0604D5338823403B439BB23380BA
:102590001678B6008E1933881C402743BFB23780A7
:1025A0001478274EA4000C192388334003439BB2B0
:1025B00023801378204A9B00C9180B882CE01F88C1
:1025C000374205D01E88204F26403E43B6B21E80BB
:1025D00013789B00CB181E88760606D51E882640E9
:1025E000B4466746134E3E431E801378164F9B0039
:1025F000CB181E8834402743BFB21F8014780E4E7C
:10260000A4000C192388334003439BB22380137822
:102610000B4A9B00C9180B881340184380B2F4235F
:10262000088000205B00E854F0BDC0468080FFFFBA
:102630000F0F0000C0800000BF8FFFFF80C00000B0
:102640008FBFFFFFC080FFFF80C0FFFF70B5050098
:102650007F2001406338484328180400FC3423627B
:102660000300E2610022FF3362629A725972F4231E
:102670005B00EE5C0220012E00D1A2E00138E8549C
:10268000236AA069834203D91B1A2362030000E076
:1026900022621C2048432818FF30C47C2A68002C82
:1026A0001DD1140050342688447A4648E400A41909
:1026B000101824183E2B09D9580980B2DB0601D125
:1026C000013880B2404B8002184306E0580880B2BF
:1026D000DB0701D5013080B2800220805DE0847A82
:1026E000002C1DD1140050342688447A3748E40069
:1026F000A419101824183E2B09D9580980B2DE06F7
:1027000001D1013880B2304E8002304306E05808D3
:1027100080B2DE0701D5013080B2800220800BE05C
:10272000012C09D11400407A50342488C0001018BC
:102730000019264C001903801C2048432818FF303C
:10274000847A002C1DD11400407A50342488C000B3
:1027500000191C4C141900193E2B09D95C09A4B2AC
:10276000DB0601D1013CA4B2174BA4021C4306E0D6
:102770005C08A4B2DB0701D50134A4B2A402048032
:102780000BE0012C09D11400407A50342488C00099
:10279000101800190D4C001903801C2359436918A7
:1027A000FF314B7A00209B00D2181188084B0B4058
:1027B000C02189014B4007490B431380F4235B0080
:1027C000E85470BD060400000080FFFF0204000012
:1027D0008FBFFFFF80800000F42330B55B00C45C36
:1027E00002000220012C3CD00138D054CD3B48B22D
:1027F000FF3B002804DA7F240C406343283302E0C7
:102800004B430933FF330124D3189C707E3421409D
:10281000C40F5C7019701568124C002908D1298802
:10282000114B0B4011494B4023439BB22B8014E0CA
:1028300089006918002806DA08880D4B034010202B
:102840004340234307E00B4B0888184080235B017B
:102850005840230003439BB20B80F42300205B000D
:10286000D05430BD8080FFFFBFBFFFFF10100000BD
:10287000BF8FFFFF8FBFFFFF4AB270B51C2304005C
:10288000002A04DA7F2008404343283302E04B4308
:102890000933FF330020E318D20F5A70F4229870E6
:1028A0007F30014019705200A15C7D38012936D07B
:1028B0000121A1541A782568587892001849AA185D
:1028C000002813D01088400605D5168815483040DA
:1028D000154E304310801878144B80002818028859
:1028E000134030225A400B00134312E0108840047A
:1028F00005D516880B4830400D4E304310801878AF
:102900000C4A8000281803881A40C0239B015340BA
:102910000B439BB20380F42300205B00E05470BDA6
:102920008080FFFF0F0F0000C0800000BF8FFFFFFF
:1029300080C000008FBFFFFF70B58024E400001945
:102940000C0001335B108218002B08D065782678C4
:102950002D02601A354385520234013BF4E770BD05
:10296000F8B504007F2001400D001C216943611867
:10297000CB630B008A630026012229330E64013BDE
:102980005A701D70F4235B00E75C7D38974200D1DC
:10299000C2E0E254CB6B4A6B934203D99B1ACB63E0
:1029A000130000E0CE631C21694361180A000F0088
:1029B000323212789EB22837002A11D18A8D330024
:1029C000896B2068FFF7B8FF21680B0050331A8825
:1029D0003B78DB00CB189B18504A9B181E8087E081
:1029E0003A7820689700C7193F88293109787F060F
:1029F0002ED500291CD1010050310988D20052186F
:102A00004749411852183E2B09D9590989B2DB06AA
:102A100001D1013989B2434B8902194306E05908B3
:102A200089B2DB0701D5013189B2890211800AE040
:102A3000012908D1010050310988D20082185218AA
:102A40003649521813801C236B43E3181A8E2DE06D
:102A500000291CD1010050310988D20052182F4999
:102A6000411852183E2B09D9590989B2DB0601D108
:102A7000013989B22B4B8902194306E0590889B202
:102A8000DB0701D5013189B2890211800AE00129F1
:102A900008D1010050310988D200821852181F490C
:102AA000521813801C236B43E318DA8D1C276F43E5
:102AB000E7193300B96BFFF73FFF3B0029331B7861
:102AC0002168002B08D128373A7892008B18198892
:102AD000154A0A40154909E0012B09D128373B78EE
:102AE000114A9B00CB1819880A4011490A431A80E1
:102AF0001C214D43651928352B7822689B00D3187B
:102B000019880C4A00200A4030214A400A490A43E9
:102B10001A80F4235B00E054F8BDC04602040000B4
:102B2000060400000080FFFF0F0F0000C0800000BF
:102B300080C00000BF8FFFFF8080000010B58024A0
:102B4000E40000190C0001335B108218002B05D043
:102B5000601A805A013B20800234F7E710BD000064
:102B6000F0B5036885B00633DB8F04001BB2002B81
:102B700011DB23680633DA8F520500D4C6E1D98F02
:102B8000BB4A20000A40DA87FDF7F4FB0021200051
:102B9000FFF727FBBAE102AB9F1D00233B802068B3
:102BA00003AA831DDB8F9BB213801BB2002BE0DADC
:102BB0000F2316881E4000D09FE011880133194072
:102BC00027D10288AB4B1340220003800300283238
:102BD000127850331B88D2008018C018A64BA26B05
:102BE000C018038820009B059B0D2364D318A363A2
:102BF000FDF7AEFB631DDA7F002AD0D0E06B002822
:102C0000CDD18022D97F114322684C321180D877F0
:102C1000C5E703889BB23B803B881B0520D503009A
:102C200050331A8884235B00E35C2100DB00C31867
:102C30009B18924AED319B1822001B8809329B0594
:102C40009B0DFF329361FF319288FFF777FF226877
:102C50008B4B118820000B401380FDF763FB9EE730
:102C60003B881BB2002B9ADA0288854B2500134063
:102C70000380030050331A8884235B00E35C09352A
:102C8000DB00C3189B187D4AFF359B181B889B05EA
:102C90009B0DAB6107D0AA882969FFF74FFF2B690D
:102CA000AA699B182B6100212000FDF745FB2168D4
:102CB000E8680B0050331A88704B8A18D2183E28E7
:102CC00009D943099BB2C00601D1013B9BB26D48B3
:102CD0009B02034306E043089BB2C00701D50133C2
:102CE0009BB29B0213800A88674B1340C02292015B
:102CF0005340664A13430B8051E7B3000193C31856
:102D00001A8892B23A803A8812B2002A00DB74E044
:102D100019885B4A0A401A801C237343E3181A007F
:102D20000100FF32D57C5031527A002D13D1098831
:102D3000D20082185218514952181588AD05AD0DB0
:102D400039D01A00FC331900FE32D2892B00C96930
:102D5000FFF7F4FE2FE0950045192D88D200098871
:102D6000821852186D0409D5434952181588AD05CB
:102D7000AD0D12D01A00FE32128A08E03F495218F7
:102D80001588AD05AD0D08D01A00FE32528AFC330D
:102D900019002B00C969FFF7D1FE1C237343E31808
:102DA000FF335B7A22689B00D3181988384A0A409F
:102DB00038490A431A801C21080070432018030078
:102DC000FC335A6A52195A62DA6952190192DA616D
:102DD0001A6A002A02D09B699D4207D2714361188A
:102DE000FF31497A2000FDF7A7FA06E0FF30417A6B
:102DF00013002000019AFFF729FC80223B88134230
:102E000000D1CCE62068B300C3181988194A0A40DB
:102E10001C21714361181A800B00020032331D78A7
:102E200050320A3B002D10D11B781288DB00C318EA
:102E30009B18114A9B181B889B059B0D0B6444D063
:102E40008A8D896BFFF778FD3FE01B789D0045195F
:102E50002D88DB001288C3189B186D061CD5064A06
:102E60009B181B889B059B0D0B6420D0CA8D1BE013
:102E7000FFFBFFFF0F8FFFFF0204000006040000AE
:102E80008F0F00000080FFFF8FBFFFFF80800000DA
:102E90000F0F0000C0800000454A9B181B889B054F
:102EA0009B0D0B6403D00A8E896BFFF745FD1C2335
:102EB0007343E31828331B7822689B00D3181988C2
:102EC0003C4A0A403C490A431A80206803005033B8
:102ED0001A881C235E43A619310028310B78DB00C9
:102EE000C3189B18354A20009B181A88B36B9205AB
:102EF000920D32649A18F36BB2630978002B02D1F9
:102F0000FDF726FA4BE6FFF72BFD48E62268931DF6
:102F1000D98F490403D5D88F29490140D987D98F42
:102F2000890403D5D88F27490140D987DB8FDB047B
:102F30000FD50421931CDA8F20008A43DA87224AB6
:102F4000DA87FDF735FA2368204A0633D98F0A401D
:102F5000DA8723689A1DD18F090512D5D08F1C49B5
:102F6000023301400820D187D98F0143D987D98FF7
:102F700004380143D987D38FDB0402D42000FDF746
:102F800005FA23680633DA8F920506D5D98F114AE0
:102F900020000A40DA87FDF7E6F923680633DA8F66
:102FA000D20503D5D98F0C4A0A40DA8705B0F0BDA7
:102FB000060400000F0F000080C0000002040000A3
:102FC000FFBFFFFFFFDFFFFF00BDFFFFFFEFFFFFC2
:102FD000FFF7FFFFFFFDFFFFFFFEFFFFF0B50B68F0
:102FE00087B0039300230291039ADA4000D190E066
:102FF00001229A40039C1440019400D187E0029A78
:103000001021526816008E43022E0ED107251D4056
:10301000AD000139A940DC08A4000419276A8F43D8
:1030200002990969A9400F43276203245F00BC404D
:103030000321E4431140B9400568013E25400D439A
:103040000560012E10D802998568CE682540BE40E3
:10305000354301269E40012185604568B543160928
:103060000E409E4035434560C56802992C408D68EE
:103070008021BD4049052C43C4600A4247D001214C
:10308000254C0327A5691F400D43A5610F25A469A1
:10309000BF000C400594059C20499C08A4006418BE
:1030A000BD409021A668C905AE430025884208D0DE
:1030B0001B490135884204D01A490435884200D1A1
:1030C000033DBD40019935430E00A560164CCD432C
:1030D00027683E43D10301D43E002E402660676836
:1030E000019E3E43910301D43E002E406660A768D6
:1030F000019E3E43D10201D43E002E40A660E66808
:10310000019F3743920201D42E403700E76001331C
:103110006AE707B0F0BDC046001002400000014061
:10312000000400480008004800040140002A01D0C3
:10313000816100E081627047030030B50120002BFF
:103140001FD09C1CE27FD2B2002A01D11918CA7785
:1031500002221868E27701680A4A9D6811405A689D
:103160002A43DD682A431D692A435D692A439D6914
:103170002A43DD692A430A43026000205863012381
:10318000E37730BD0FC0FFFFF0B50225471CFE7F7F
:103190002C00012E21D001264419FE77E577046822
:1031A0002568B543256063604368102B02D1A26097
:1031B000E16001E0A160E260022223681343236022
:1031C0002368921813432360236804321343236057
:1031D0002368073A1343236000242000F0BD000059
:1031E00070B50368664D674E040029680822B34233
:1031F00011D06548783283420DD0644A934205D09D
:10320000634A934205D08022120304E08022120117
:1032100001E08022120211422AD0082219681142CC
:1032200026D0196891431960B34211D056497832BB
:103230008B420DD0554A934205D0554A934205D052
:103240008022120304E08022120101E08022120297
:103250006A600122636B134363630332A31CDA7752
:103260000022631CDA77236B934201D02000984739
:10327000236829680422B34211D043483C32834278
:103280000DD0424A934205D0414A934205D0802254
:10329000D20204E08022D20001E08022D201114259
:1032A00027D004211A680A4223D01A68920602D451
:1032B0001A688A431A600422B34211D032493C3260
:1032C0008B420DD0314A934205D0314A934205D00A
:1032D0008022D20204E08022D20001E08022D201CA
:1032E0006A601122A31CDA77E36A002B01D0200068
:1032F0009847236829680222B34211D022481E321F
:1033000083420DD0214A934205D0214A934205D0F1
:103310008022920204E08022920001E08022920149
:1033200011422CD002211A680A4228D01A6892064B
:1033300002D41A688A431A600222B34211D0124999
:103340001E328B420DD0114A934205D0104A93424F
:1033500005D08022920204E08022920001E08022C7
:1033600092016A600122636B6363A31CDA77A3187E
:103370000022DA77A36A934201D02000984770BDFB
:1033800000000240080002401C00024030000240E1
:103390004400024070B58901002814DA0F23C0B23E
:1033A0000340083B114A9B0803249B009B18FF2203
:1033B0002040A04014000A4084408240DD69A543BB
:1033C0002A43DA6111E08208094B03259200D218E2
:1033D000FF232840A8401D00C02485400B408340A7
:1033E000A4001659AE433343135170BD00ED00E005
:1033F00000E100E01F2318401E3B8340014A136098
:103400007047C04600E100E0094A431E0120934294
:103410000DD8C020074A084953600B6A00061B02FA
:103420001B0A03430B620020072390601360704760
:10343000FFFFFF0010E000E000ED00E0054B1A6820
:10344000042802D11043186002E004218A431A6064
:103450007047C04610E000E0704710B5FFF7FCFF72
:1034600010BD00000023F7B5032201930368040098
:1034700099680A40012A07D11968114201D0002039
:1034800036E0DA681204FAD499681A4A114208D070
:1034900010220120636C13436364A36C0343A36491
:1034A00026E001219A680A439A60134B1349186871
:1034B000FCF73EFE0190019B002B03D0019B013BDA
:1034C0000193F8E700F0FEF90126070023680125C3
:1034D0001B683342D3D100F0F5F9C01B0228F5D99F
:1034E00010222800636C13436364A36C2B43A36412
:1034F000FEBDC046170000800001002040420F00C2
:10350000F8B504000120002C00D195E0636C002B7D
:1035100006D122004032A36420001370FDF742F868
:10352000636CDB0675D4042223689868104070D160
:10353000616C424A0A4002210A436264032299688C
:103540000A40012A6BD11968114202D1DA681204CB
:1035500065D5D9683A4A266A0A40DA60A2697503D5
:103560009103E269D2031143626B013A571EBA41DB
:103570001703E268114322692943022A00D104207B
:10358000226B656A52000A433A430243012D0CD173
:10359000002E03D1802149020A4306E02021606CFD
:1035A00008436064A16C2943A164C220A16AFF3072
:1035B000814202D0E06A01430A43D968A56B1143F6
:1035C000D960802149058D4202D0691E062907D89D
:1035D0000721586988435861586929400143596156
:1035E000D968184B0B409A4208D100200322A064EE
:1035F000636C9343023A134363641DE0122201207B
:10360000636C9343023A13436364A36C0343A36460
:1036100012E01022636C0120134363640CE0182154
:10362000DA688A43A1680A43DA6019696268890026
:103630008908114319618CE7F8BDC046FDFEFFFF04
:103640001902FEFFE7FF3F83F7B5036805009B689B
:103650000F00019202205B0736D42E0040363378EB
:10366000012B31D001233370EB69012B27D16A6C18
:10367000164B002413408022520013436B64E86B06
:10368000134BAC6434708362124B2968C362124BD3
:10369000F03A03631C230B604B6813434B60CB6809
:1036A0000F3A1343CB603A004031019BFFF76CFDAA
:1036B00004212A68200093680B43936004E02800EB
:1036C000FFF7D0FE0028D2D0FEBDC046FEF0FFFFBF
:1036D000DD3600084F3700085B3700085022436A88
:1036E00010B5596C11422AD180215A6C89000A43C5
:1036F000C0215A641A680901D06808421BD1196AAE
:10370000002918D11168090715D5916849070AD40D
:103710000C20516881435160596C0B4A0A400121C9
:103720000A435A6407E020215A6C0A435A649A6C8F
:103730001F390A439A641800FDF71AF902E0DB6B9F
:103740001B6B984710BDC046FEFEFFFF704710B5CB
:10375000406AFFF7FBFF10BD70474022406A10B57A
:10376000436C13434364836C3C3A13438364FFF715
:10377000F3FF10BDF7B50023040001934034227815
:103780000233012A63D00268013B9568866B23707F
:103790006D0756D42F484F680D6887423AD0AB402A
:1037A000976A3B43936280235B059E420FD0013EA4
:1037B000062E0CD90723886851691940884206D023
:1037C000516999435161516903400B4353612B0087
:1037D000103B022B33D8204B80211A68102D03D0C8
:1037E000112D03D0490402E0090400E0C9030A4393
:1037F0001A60102D23D1194B19491868FCF798FC51
:103800000A2358430190019B002B18D0019B013BD8
:103810000193F8E7AB40916A99432B00103B91620A
:10382000022B0CD80C4A1168102D03D0112D03D097
:103830000C4B02E00C4B00E00C4B0B4013600023E0
:1038400003E02021426C0A434264002222701800E7
:10385000FEBDC04601100000082701400001002005
:1038600040420F00FFFFFFFEFFFF7FFFFFFFBFFF94
:1038700010B50400FEF736FCFA218900FCF758FC6D
:10388000FFF7C2FD0120002221004042FFF782FD28
:10389000002010BD1021064A10B5136800200B430C
:1038A0001360FFF7E5FFFCF757FE002010BDC04690
:1038B00000200240024A1368013313607047C0467B
:1038C00050010020014B18687047C046500100208D
:1038D00013B50190FFF7F6FF0400FFF7F3FF019B1C
:1038E000001B9842F9D313BD0121114B1A680A43FA
:1038F0001A6058680F4A02405A6018680E4A02401F
:103900001A6018680D4A02401A6058680C4A024052
:103910000F205A60DA6A8243DA62186B094A024061
:103920001A635A6B8A435A6300229A607047C046F2
:10393000001002400CB8FF08FFFFF6FEFFFFFBFF80
:10394000FFFFC0FF2CFEFFFF1348854604200168DF
:10395000090E1F22914205D1104801210160104833
:1039600000210160002103E00E4B5B5843500431FD
:103970000D480E4B42189A42F6D30D4A02E000233E
:10398000136004320B4B9A42F9D3FFF7ADFF00F0FE
:1039900015F8FCF7A5FEFEE70018002018100240FD
:1039A00000000140BC3A0008000000200401002093
:1039B000040100208C080020FEE700000E4B70B5CB
:1039C00000251E000D4CE41AA410A54204D0AB0043
:1039D000F35898470135F8E700F020F8084B002528
:1039E0001E00084CE41AA410A54204D0AB00F35802
:1039F00098470135F8E770BDB43A0008B43A0008BA
:103A0000B43A0008B83A0008002310B59A4203D02F
:103A1000CC5CC4540133F9E710BD0000F8B5C046D2
:103A2000F8BC08BC9E467047F8B5C046F8BC08BC58
:043A30009E467047F7
:103A340002030405060708090A0B0C0D0E0F1010EB
:103A44000102030405060708090A0B0C0D0E0F10EA
:103A5400496E74657242696F6D657472696373004F
:103A6400536869667465722F506564616C73204194
:103A74006461707465720030303030303030303012
:103A84003031410048494420436F6E6669670048FD
:103A9400494420496E7465726661636500000000E4
:103AA40000010203040102030406070809000000E0
:043AB400E90000081D
:043AB800C100000841
:103ABC004902000855020008610200087D02000856
:103ACC0099020008B5020008D10200080403090499
:103ADC00120100020000004009120DF00002010268
:103AEC0003010000D9110008B911000801110008E8
:103AFC000000000000000000E910000800000000B9
:103B0C00000000000000000000000000DD100008B4
:103B1C00DD100008DD100008F5100008050109058E
:103B2C00A101850105091901290F15002501750150
:103B3C00950F8102950175018101A10009900991F0
:103B4C00099309921500250135004501750195046D
:103B5C008102C095017504810105010901A10009CB
:103B6C003309340935150026FF0F751095038102B2
:103B7C00C0C0000009211101000122560000000004
:103B8C000A060002000000400100000009022200A9
:103B9C00010100E0320904000001030100000921C9
:103BAC0000010001225600070581030A00050000F0
:043BBC0000127A0079
:04000005080039496D
:00000001FF
