:020000040800F2
:1000000000180020F1030008394500083B450008AE
:1000100000000000000000000000000000000000E0
:100020000000000000000000000000003D45000846
:1000300000000000000000003F45000841450008A6
:1000400061040008610400086104000861040008FC
:1000500061040008610400086104000861040008EC
:10006000610400084D4500086104000861040008AF
:1000700061040008610400086104000861040008CC
:100080006104000800000000000000005D45000859
:100090000000000061040008610400086104000819
:1000A0000000000061040008610400086104000809
:1000B0006104000800000000610400086D450008AC
:1000C00010B5064C2378002B07D1054B002B02D02E
:1000D000044800E000BF0123237010BD4805002044
:1000E0000000000088480008084B10B5002B03D022
:1000F0000749084800E000BF07480368002B00D10B
:1001000010BD064B002BFBD09847F9E7000000001C
:100110004C05002088480008480500200000000029
:1001200002B4714649084900095C49008E4402BC8A
:100130007047C04603B47146490840004900095A57
:1001400049008E4403BC7047002243088B4274D39D
:1001500003098B425FD3030A8B4244D3030B8B42C8
:1001600028D3030C8B420DD3FF22090212BA030CD1
:100170008B4202D31212090265D0030B8B4219D3B2
:1001800000E0090AC30B8B4201D3CB03C01A5241D2
:10019000830B8B4201D38B03C01A5241430B8B421A
:1001A00001D34B03C01A5241030B8B4201D30B0303
:1001B000C01A5241C30A8B4201D3CB02C01A52412A
:1001C000830A8B4201D38B02C01A5241430A8B42ED
:1001D00001D34B02C01A5241030A8B4201D30B02D6
:1001E000C01A5241CDD2C3098B4201D3CB01C01AF0
:1001F000524183098B4201D38B01C01A52414309FA
:100200008B4201D34B01C01A524103098B4201D3E7
:100210000B01C01A5241C3088B4201D3CB00C01A54
:10022000524183088B4201D38B00C01A52414308CC
:100230008B4201D34B00C01A5241411A00D20146F1
:10024000524110467047FFE701B5002000F006F864
:1002500002BDC0460029F7D076E770477047C04618
:10026000D0400B1CD1409C46203AD3401843524208
:10027000634693401843704770B50D4E0D4D0024F2
:10028000AD1BAD1005D0A300F35801349847A5422B
:10029000F9D104F0F9FA084E084D0024AD1BAD1059
:1002A00005D0A300F35801349847A542F9D170BD99
:1002B0002849000828490008284900083049000852
:1002C000034B10B5002B02D0024800F005F810BD1A
:1002D00000000000E902000810B501000023002220
:1002E000002000F01BF810BD70B5094B094CE41A52
:1002F000A41009D0084AA518AD00ED182B68013CE0
:100300009847043D002CF9D104F0C4FA70BDC046F2
:100310003049000834490008FFFFFF3FF8B5444664
:100320005F4656464D469B462F4BF0B41C68A423AF
:100330005B000500E0580E00904600284BD0436853
:100340001F2B0DDC5C1C002D21D102339B0044606F
:100350001E5000203CBC90469946A246AB46F8BDD4
:10036000224B002B3CD0C820400000E000BF0028FA
:1003700036D0A42200235200A15843600160A0504F
:1003800040328350043283500124002DDDD09A0086
:1003900091468144424688214F467A50C4225200F9
:1003A0009046804442468739994012688A460A43FB
:1003B0009446424661461160842249465F46520097
:1003C0008F50022DC1D1020055468D32FF32116887
:1003D0000D431560B9E720004D30FF30E050AEE727
:1003E00001204042B6E7C046C448000800000000B3
:1003F0001348854604200168090E1F22914205D149
:10040000104801210160104800210160002103E033
:100410000E4B5B58435004310D480E4B42189A4224
:10042000F6D30D4A02E00023136004320B4B9A42CC
:10043000F9D300F017F8FFF71FFF03F027FDFEE7E1
:100440000018002018100240000001403449000844
:10045000000000204805002048050020780D0020FD
:10046000FEE700000121114B1A680A431A60586820
:100470000F4A02405A6018680E4A02401A60186813
:100480000D4A02401A6058680C4A02400F205A6018
:10049000DA6A8243DA62186B094A02401A635A6BBD
:1004A0008A435A6300229A607047C0460010024097
:1004B0000CB8FF08FFFFF6FEFFFFFBFFFFFFC0FFCA
:1004C0002CFEFFFF10B5040002F08EF8FA2189001F
:1004D000FFF73AFE00F07AFA0120002221004042A4
:1004E00000F03AFA002010BD102110B5054A002096
:1004F00013680B431360FFF7E5FF03F06BFF002069
:1005000010BDC04600200240024A13680133136048
:100510007047C04664050020014B18687047C0460C
:10052000640500200023F7B503220193036804004B
:1005300099680A40012A07D11968114201D00020A8
:1005400036E0DA681204FAD499681A4A114208D0DF
:1005500010220120636C13436364A36C0343A36400
:1005600026E001219A680A439A60134B13491868E0
:10057000FFF7EAFD0190019B002B03D0019B013B9B
:100580000193F8E7FFF7C8FF01260700236801255C
:100590001B683342D3D1FFF7BFFFC01B0228F5D938
:1005A00010222800636C13436364A36C2B43A36481
:1005B000FEBDC046170000802804002040420F0006
:1005C00070B504000120002C00D19CE0636C002B6E
:1005D00006D122004032A3642000137003F020FFF4
:1005E000636CDB067BD4042322689168194076D1C2
:1005F000606C454B0340022003436364032390680F
:100600000340012B71D11068184202D1D3681B043A
:100610006BD522683D4BD0680340D360A369256A3F
:100620009A03E3696803DB031A43636B013B5E1EB5
:10063000B3411E03E3681A4323690243022B00D12E
:100640000421236B606A5B00134333430B4301288F
:100650000CD1002D03D180225202134306E0202248
:10066000616C11436164A26C0243A264C221A26A5C
:10067000FF318A4202D0E16A0A4313432168CA6803
:100680001A43CA608021A26B49058A4202D0013A0E
:10069000062A0AD8072220684169914341612068EF
:1006A000A56B41692A400A4342612268D168184A11
:1006B0000A40934208D100200322A064636C934354
:1006C000023A134363641EE012220120636C9343D9
:1006D000023A13436364A36C0343A36413E0102240
:1006E000636C0120134363640DE01820D3688343D7
:1006F000A0680343D360236860681A699200920877
:1007000002431A6185E770BDFDFEFFFF1902FEFF7F
:10071000E7FF3F83F7B5036804009B680F00019271
:1007200002205B073CD4260040363378012B37D0BB
:1007300001233370E369012B2DD1626C194B002525
:1007400013408022520013436364A5643570E36B49
:10075000154A10219A62E36B144ADA62E36B144A79
:100760001A631C2223681A60226853680B43536083
:1007700022680F39D3680B43D3602168019B403155
:100780003A00E06B00F078F90421226828009368B1
:100790000B43936004E02000FFF7C4FE0028CCD098
:1007A000FEBDC046FEF0FFFFB507000827080008A1
:1007B00033080008502210B5436A596C11422AD1FF
:1007C00080215A6C89000A43C0215A641A680901C1
:1007D000D06808421BD1196A002918D1116809078D
:1007E00015D5916849070AD40C205168814351609E
:1007F000596C0B4A0A4001210A435A6407E0202140
:100800005A6C0A435A649A6C1F390A439A64180056
:1008100003F092FD02E0DB6B1B6B984710BDC046F6
:10082000FEFEFFFF704710B5406AFFF7FBFF10BDEB
:100830007047402210B5406A436C13434364836C95
:100840003C3A13438364FFF7F3FF10BDF7B5002371
:1008500004000193403422780233012A6BD0013B1B
:100860002370026895686D075FD4344D4F680E6839
:10087000AF4242D0B340956A2B4393628022836B90
:100880005205934212D0013B062B0FD90723026871
:100890008E6855691D40AE4208D055699D4355612B
:1008A00000688D6842692B40134343610868030068
:1008B000103B022B37D8224B1A68102804D011287D
:1008C00005D08020400404E08020000401E0802066
:1008D000C00302431A600B68102B24D1194B1A492C
:1008E0001868FFF731FC0A2358430190019B002B45
:1008F00019D0019B013B0193F8E7B340956A9D43F2
:10090000956209680B00103B022B0CD80C4A10684A
:10091000102903D0112903D00C4B02E00C4B00E04E
:100920000C4B03401360002303E02021426C0A4378
:100930004264002222701800FEBDC0460110000073
:10094000082701402804002040420F00FFFFFFFE5F
:10095000FFFF7FFFFFFFBFFF70B58901002814DA9A
:100960000F23C0B20340083B114A9B0803249B009D
:100970009B18FF222040A04014000A40844082407F
:10098000DD69A5432A43DA6111E08208094B03259A
:100990009200D218FF232840A8401D00C0248540A3
:1009A0000B408340A4001659AE433343135170BD2E
:1009B00000ED00E000E100E01F2318401E3B8340F3
:1009C000014A13607047C04600E100E0094A431E37
:1009D000012093420DD8C020074A084953600B6A92
:1009E00000061B021B0A03430B62002007239060D2
:1009F00013607047FFFFFF0010E000E000ED00E033
:100A0000054B1A68042802D11043186002E0042143
:100A10008A431A607047C04610E000E0704710B586
:100A2000FFF7FCFF10BD0000030030B50120002BD4
:100A30001FD09C1CE27FD2B2002A01D11918CA77BC
:100A40000222E27718680B4A01689D6811405A68D3
:100A50002A43DD682A431D692A435D692A439D694B
:100A60002A43DD692A430A430260002058630123B8
:100A7000E37730BD0FC0FFFFF0B50225471CFE7FB6
:100A80002C00012E29D001264419FE77E577056850
:100A90002C68B4432C600468636044680368102CBD
:100AA00003D19A600368D96002E099600368DA6054
:100AB00002210024026813680B431360026849187E
:100AC00013680B4313600268043113680B4313600F
:100AD0000268073913680B4313602000F0BD000063
:100AE00070B5694D0268694E040029680823B24256
:100AF00011D06748783382420DD0664B9A4205D0B8
:100B0000654B9A4205D080231B0304E080231B0120
:100B100001E080231B0219422BD0082311681942DF
:100B200027D01168994311602268B24211D0584908
:100B300078338A420DD0574B9A4205D0564B9A4291
:100B400005D080231B0304E080231B0101E08023E8
:100B50001B0201226B60636B134363630332A31CAC
:100B6000DA770022631CDA77236B934201D02000EE
:100B70009847236829680422B34211D044483C3284
:100B800083420DD0434A934205D0434A934205D055
:100B90008022D20204E08022D20001E08022D20131
:100BA000114228D004211A680A4224D01A689206F9
:100BB00002D41A688A431A6022680423B24211D010
:100BC00033493C338A420DD0324B9A4205D0324BE6
:100BD0009A4205D08023DB0204E08023DB0001E0A1
:100BE0008023DB0111226B60A31CDA77E36A002B00
:100BF00001D020009847236829680222B34211D00F
:100C000023481E3283420DD0224A934205D0224A05
:100C1000934205D08022920204E08022920001E0FB
:100C20008022920111422DD002211A680A4229D055
:100C30001A68920602D41A688A431A60226802234C
:100C4000B24211D012491E338A420DD0114B9A4242
:100C500005D0114B9A4205D080239B0204E08023EB
:100C60009B0001E080239B0101226B60636B636347
:100C7000A31CDA77A3180022DA77A36A934201D083
:100C80002000984770BDC0460000024008000240A6
:100C90001C0002403000024044000240094BDA6868
:100CA000D20604D502200849CA690243CA61DA683B
:100CB000520704D501200449CA690243CA611422BB
:100CC000DA60704700200240F0050020054B01204B
:100CD0001A69120604D50020034A5A60034A5A6072
:100CE0007047C0460020024023016745AB89EFCD25
:100CF0008021034A002013690B4313617047C046EB
:100D00000020024070B50400FFF706FC0125060034
:100D10001049CA680F4B2A420BD0631CF9D0002C33
:100D200001D1032015E0FFF7F7FB801B8442EFD2CF
:100D3000F7E72022D968114200D0DA60D868102382
:100D4000184003D1034BDB685B0702D5FFF7A6FF12
:100D5000012070BD00200240F0B585B002920393DF
:100D60001B4B01911A7E04000220012A2ED0012281
:100D700018481A76FFF7C6FF002824D12600012C58
:100D800002D0022C00D004260024029803992201EC
:100D9000FFF766FA002201270D4B0F4DDA612B6930
:100DA00080B23B432B61019A63009B18188009486D
:100DB000FFF7A8FF2B69BB432B61002803D1E4197F
:100DC000E3B29E42E1D80022014B1A7605B0F0BD95
:100DD000F005002050C30000002002400022042142
:100DE000054BDA61054B1A690A431A611A693C31ED
:100DF0000A431A617047C046F005002000200240F7
:100E000000220221054BDA61054B1A690A431A6177
:100E100058611A693E310A431A617047F005002093
:100E200000200240F7B5234B06001A7E0F00019305
:100E30000224012A3BD001221A7603681E48012BA6
:100E400010D1FFF75FFF002801D001202BE0FFF752
:100E5000C5FF1948FFF756FF0421184A13698B4351
:100E6000136120E0FFF74EFF0028EED101235B4223
:100E70003B6075680130B36872689B029B189D42A5
:100E800011D22800FFF7BCFF0B48FFF73BFF0B4ACE
:100E90001369A3431361002801D03D6003E0802360
:100EA000DB00ED18E7E700230400019A1376200029
:100EB000FEBDC046F005002050C3000000200240E7
:100EC0000023F0B585B00A681400DC4000D194E03E
:100ED00001249C402240019200D18CE010254C68F6
:100EE000AC43022C0DD10F27093D1D40AD00AF4092
:100EF000DC08A4000419266ABE430F69AF403E43D4
:100F0000266203255F000322BD404E68ED43164074
:100F1000BE4004680D322C40344304604C68944356
:100F2000013C012C10D8CE688468BE402C4034436C
:100F3000846001249C404A684668A6431409012243
:100F400014409C4034434460C46825408C68BC40D5
:100F500025438024C5604A68640522424BD00122A3
:100F6000274C0327A5691F401543A5610F25A469D8
:100F7000BF0014400394039C224A9C08A400A418B8
:100F8000BD409022A668D205AE430025904208D00D
:100F90001D4A0135904204D01C4A0135904200D0D0
:100FA0000335BD40019A35431600A560184CD54362
:100FB00027684A683E43D20301D43E002E40266093
:100FC0006768019E4A683E43920301D43E002E406A
:100FD0006660A768019E4A683E43D20201D43E0083
:100FE0002E40A660E668019A4F683243BF0201D4E2
:100FF00032002A40E260013365E705B0F0BDC0462B
:1010000000100240000001400004004800080048B1
:1010100000040140002A01D0816100E08162704734
:1010200070B504000120002C43D0EA25FF35635D34
:10103000DBB2002B05D1F4225200A354200003F0B0
:10104000B3FA0323002263552300110001266068D0
:101050002833824208D01A705E70D970D960196145
:10106000596101321C33F4E70022230011000933D7
:10107000FF33824208D01A705970D970D960196153
:10108000596101321C33F4E7012200202368094929
:101090000233DA8723680233D88723680633D88778
:1010A00023685033188023680233D987631DD877AB
:1010B000625570BD00BDFFFF8022036812025833E5
:1010C000198800200A431A807047F42210B5520094
:1010D000835C04000220012B0DD00123A3540029BE
:1010E00004D1236880314C33198001E0631DD97726
:1010F00000231800A35410BDF7B5050048B21C2406
:10110000002804DA7F260E407443283402E04C4362
:101110000934FF342C197F26E370F423C00F3140CB
:1011200060702170E2605B00EA5C0220012A00D15D
:1011300041E10122EA54E078032820D823782E6880
:101140009D4AFEF7EDFF0214090E9B00F318198863
:101150000A408021890010E09B00F31819880A409A
:101160000CE09900731819880A40C02104E0990026
:10117000731819880A408021C9000A431A8023780D
:1011800029689A008A1816888C498D480E400343B6
:1011900033439BB21380A77A22782E680B0001900C
:1011A000002F67D16778A088002F21D033005033FB
:1011B0001B88D200B218D2188023DB00D218060098
:1011C00001239E43168023782A689B00D3181A882F
:1011D000520604D51A8811407A4A1143198023789F
:1011E0002A689B00D2181188774B0B4020213FE0E2
:1011F000310050310988D200B218521873490127C2
:1012000052180100B94311802A6871481100503109
:101210000E8821781218C9008919E66889183E2EAF
:1012200009D9720992B2F00601D1013A92B2694E1F
:101230009202324306E0720892B23E4201D001327D
:1012400092B292020A802278296892008A18118844
:10125000490404D511880B405F490B431380237860
:101260002A689B00D21811885C4B0B40C021890171
:101270004B4098E09200B2188026118876003143E6
:1012800001981940014389B211802E6880203200F4
:10129000503211882278C001D200B2185218802131
:1012A0000126C9005218E188B14311802F683A0025
:1012B000503211882278D200BA1852184349521875
:1012C0002189B1431180627821782F683E4E002A2F
:1012D00036D18A00BA181188014204D011883E4FD5
:1012E0001940394311802278296892008A1817889A
:1012F0003B49780604D517881F400F43BFB21780BB
:10130000227828689200821817883B400B439BB2D2
:10131000138022782B6892009A1813882F490B406B
:10132000C02189014B40019908000B439BB21380F7
:1013300022782B6892009A1813881E40304334E0BC
:101340008A00BA181188274F014204D01188194029
:10135000394389B211802278296892008A1811884D
:10136000490606D5118819408C4660461549014347
:1013700011802278296892008A1811880B401F4337
:10138000BFB2178023782A689B00D3181A881349A4
:101390001640019A1643B6B21E8022782B6892003E
:1013A0009A1813880B400198184380B2F4231080D8
:1013B00000205B00E854FEBD8F89FFFF0F0F000087
:1013C0008080FFFFC0800000BF8FFFFF040400008B
:1013D000060400000080FFFF80C000008FBFFFFFF9
:1013E000C080FFFF80C0FFFF4BB2F0B51C2204009D
:1013F000002B04DA7F2008404243283202E04A43AF
:101400000932FF32A2187F20DB0F5370F423014012
:1014100011705B00E15C7D38012900D1A3E001215E
:10142000E1545378917A9C46266813784E4D0029F2
:101430002AD16146002911D08340F3181988490642
:1014400005D5188849490140494801431980127857
:10145000236892009A181088464B10E09B00F318FE
:101460001988490405D5188840490140424801437C
:1014700019801278236892009A1810883F4B184000
:101480000543ADB215806AE0802760469B0037496E
:10149000FF01F31800282ED11E883E4204D01E887A
:1014A000354F0E403E431E80137820689B00C318C2
:1014B0001F88334E780604D51F880F403743BFB2CC
:1014C0001F80137820689B00C3181F882B48394061
:1014D000314389B2198011782368890059180B8823
:1014E00003402B439BB20B801278236892009A181A
:1014F00013882048C3E71888224E384204D01F883A
:101500000F403743BFB21F80137820689B00C31879
:101510001F88780606D51F880F40BC466046144FCA
:1015200007431F80137820689B00C3181F88114849
:1015300039400E43B6B21E80137821689B00CB1849
:1015400019880840284380B21880137822689B00CD
:10155000D3181888094A10400543ADB21D80F42302
:1015600000205B00E054F0BD8080FFFF0F0F000003
:10157000C0800000BF8FFFFF80C000008FBFFFFF53
:10158000C080FFFF80C0FFFFF0B504007F20014056
:101590006338484320180500FC352B620300EA61DC
:1015A0000022FF336A629A725972F4235B00E65C90
:1015B0000220012E00D1A5E00138E0542B6AA86971
:1015C000834203D91B1A2B62030000E02A621C200D
:1015D00048432018FF30C27C2668002A1DD1320003
:1015E00050321588427AD2005019474AB2188218F0
:1015F0003E2B09D9580980B2DB0601D1013880B2EF
:10160000424B8002184306E0580880B2DB0701D540
:10161000013080B2800210805FE0827A002A1DD102
:10162000320050321588427AD2005019384AB21826
:1016300082183E2B09D9580980B2DD0601D1013844
:1016400080B2324D8002284306E0580880B2DD07A0
:1016500001D5013080B2800210800BE0012A09D14F
:101660003200407A50321588C200B2182848521908
:10167000121813801C224A43A218FF321500927AD6
:101680002668002A1DD13200687A50321788C000BF
:10169000C2191D48301810183E2B09D95A0992B2A8
:1016A000DB0601D1013A92B2184B92021A4306E0CE
:1016B0005A0892B2DB0701D5013292B2920202803F
:1016C0000BE0012A09D13200687A50321288C0003A
:1016D000301880180E4A801803801C235943611863
:1016E000FF314B7A22689B00D3181988094A0020E1
:1016F0000A40C02189014A4007490A431A80F4235D
:101700005B00E054F0BDC046060400000080FFFF0F
:10171000020400008FBFFFFF808000007F2319407C
:10172000633B59434018FC30406A80B27047000068
:10173000F42330B55B00C45C02000220012C3CD0D5
:101740000138D054CD3B48B2FF3B002804DA7F2457
:101750000C406343283302E04B430933FF33012439
:10176000D3189C707E342140C40F5C7019701568CA
:10177000124C002908D12988114B0B4011494B40CC
:1017800023439BB22B8014E089006918002806DAF5
:1017900008880D4B034010204340234307E00B4BC8
:1017A0000888184080235B015840230003439BB204
:1017B0000B80F42300205B00D05430BD8080FFFFFD
:1017C000BFBFFFFF10100000BF8FFFFF8FBFFFFFE5
:1017D0004AB230B51C230400002A04DA7F200840F6
:1017E0004343283302E04B430933FF330020E3181F
:1017F000D20F5A70F42298707F3001401970520055
:10180000A15C7D38012939D00121A15418785D7877
:1018100022681B498000002D15D01018028852063E
:1018200005D50588174A2A40174D2A4302801878A3
:101830002368800018180288144B1A4030235A403D
:101840000B00134314E012181088400405D51588C6
:101850000C4828400E4D28431080187823688000DB
:10186000181803880B4A1A40C0239B0153400B43AE
:101870009BB20380F42300205B00E05430BDC046DF
:101880008080FFFF0F0F0000C0800000BF8FFFFFB0
:1018900080C000008FBFFFFF70B58024E4000019F6
:1018A0000C0001335B108218002B08D06578267875
:1018B0002D02601A354385520234013BF4E770BDB6
:1018C000F8B504007F201C2601404E43A619F3639F
:1018D0003300B2630D000022012129333264013B41
:1018E00059701D70F4235B00E75C7D388F4200D196
:1018F000C5E0E154F16B736B994203D9C91AF163E6
:10190000190000E0F2631C20684320180300070060
:1019100032331B788EB22837002B11D1828D816B28
:1019200033002068FFF7B8FF21680B0050331A8896
:101930003B78DB00CB189B18514A9B181E808AE02D
:101940003A7823689700DF193F88293000787F06AE
:101950002ED500281CD1180050300088D200121853
:1019600048481B18D2183E2909D94B099BB2C90611
:1019700001D1013B9BB244499B020B4306E04B085B
:101980009BB2C90701D501339BB29B0213800AE0C9
:10199000012808D1180050300088D2009A18384B1E
:1019A0001218D21811801C236B43E3181A8E2DE0F5
:1019B00000281CD1180050300088D200121830487E
:1019C0001B18D3183E2909D94A0992B2C90601D178
:1019D000013A92B22C4992020A4306E04A0892B2B6
:1019E000C90701D5013292B292021A800AE0012899
:1019F00008D1180050300088D2009A18204B1218D5
:101A0000D21811801C236B43E318DA8D1C236B431F
:101A1000E718B96B33002068FFF73EFF3B0029331E
:101A20001B782168002B09D13A00283212789200E5
:101A30008B181988154A0A4015490AE0012B0AD16A
:101A40003A0028321378114A9B00CB1819880A40B3
:101A500010490A431A801C214D43651928352B78FB
:101A600022689B00D31819880B4A00200A403021B5
:101A70004A400A490A431A80F4235B00E054F8BD47
:101A800002040000060400000080FFFF0F0F0000AA
:101A9000C080000080C00000BF8FFFFF808000007A
:101AA00010B58024E40000190C0001335B1082188B
:101AB000002B05D0601A805A013B20800234F7E7E2
:101AC00010BD0000F0B5036885B00633DB8F04005D
:101AD0001BB2002B11DB23680633DA8F520500D4CA
:101AE000D0E1D98FC04A20000A40DA8702F0A0FD79
:101AF00000212000FFF7E9FAC4E102AB9F1D00239B
:101B00003B80206803AA831DDB8F9BB213801BB22E
:101B1000002BE0DA0F2316881E4000D0A2E01188C7
:101B20000133194028D10288B04B1340038020684C
:101B3000030050331A88230028331B78DB00C318B6
:101B40009B18AB4A20009B181B88A26B9B059B0D22
:101B50002364D318A36302F059FD631DDA7F002AC2
:101B6000CFD0E06B0028CCD18022D97F11432268EE
:101B70004C321180D877C4E703889BB23B803B8806
:101B80001B0520D5030050331A8884235B00E35CD7
:101B90002100DB00C3189B18964AED319B182200E8
:101BA0001B8809329B059B0DFF329361FF319288A0
:101BB000FFF776FF2268904B118820000B401380BE
:101BC00002F00EFD9DE73B881BB2002B99DA0288DC
:101BD000894B2500134003802068093503005033EA
:101BE0001A8884235B00E35CFF35DB00C3189B1875
:101BF000804A9B181B889B059B0DAB6107D0AA8868
:101C00002969FFF74DFF2B69AA699B182B610021F9
:101C1000200002F0EFFC2368E9681A0050321288B5
:101C20009A18744BD2183E2909D94B099BB2C906A0
:101C300001D1013B9BB271499B020B4306E04B086B
:101C40009BB2C90701D501339BB29B021380226866
:101C50006B4B11880B40C02189014B4069490B43F4
:101C600013804EE7B300C018019303889BB23B80FA
:101C70003B881BB2002B00DB77E002885E4B1340F1
:101C800003801C237343E3181A00FF32D17C2068C1
:101C9000527A002915D1010050310988D2008218EA
:101CA0005218544952181588AD05AD0D3BD01A0095
:101CB000FC331900FE32D2892B00C969FFF7F0FE10
:101CC00031E0910041180D8801005031D20009889F
:101CD000821852186D0409D5454952181588AD056A
:101CE000AD0D12D01A00FE32128A08E04149521896
:101CF0001588AD05AD0D08D01A00FE32528AFC33AE
:101D000019002B00C969FFF7CBFE1C237343E318AE
:101D1000FF335B7A22689B00D31819883A4A0A403D
:101D20003A490A431A801C21080070432018030016
:101D3000FC335A6A52195A62DA6952190192DA610D
:101D40001A6A002A02D09B699D4207D2714361182A
:101D5000FF31497A200002F04DFC06E0FF30417A65
:101D600013002000019AFFF70FFC80223B881342EA
:101D700000D1C6E62268B3009446634419881B4A22
:101D80000A401C21714361181A800B0032331A7803
:101D900020680A3B002A12D102001B7850321288B8
:101DA000DB00C3189B18124A9B181B889B059B0DD0
:101DB0000B6446D08A8D896BFFF76EFD41E01B787E
:101DC0009A008218158802005032DB001288C3186E
:101DD0009B186D061CD5064A9B181B889B059B0DFE
:101DE0000B6420D0CA8D1BE0FFFBFFFF0F8FFFFFAE
:101DF00002040000060400008F0F00000080FFFFB7
:101E00008FBFFFFF808000000F0F0000C080000028
:101E10004B4A9B181B889B059B0D0B6403D00A8EB5
:101E2000896BFFF739FD1C237343E31828331B78B4
:101E300022689B00D3181988424A0A4042490A4343
:101E40001A802068030050331A881C235E43A619A9
:101E5000310028310B78DB00C3189B183B4A200067
:101E60009B181A88B36B9205920D32649A18F36B23
:101E7000B2630978002B02D102F0C8FB41E6FFF7FC
:101E80001FFD3EE623680633DA8F520403D5D98F4F
:101E90002F4A0A40DA8723680633DA8F920403D583
:101EA000D98F2C4A0A40DA8723689A1DD28FD20430
:101EB00011D504210233DA8F20008A43DA872368A0
:101EC000254A0233DA8702F0D1FB2368234A06331E
:101ED000D98F0A40DA8723680633DA8F120517D5BF
:101EE000D98F1F4A0A400821DA8723680233DA8F24
:101EF0000A43DA87236804390233DA8F0A43DA8720
:101F000023680633DB8FDB0402D4200002F09CFB45
:101F100023680633DA8F920506D5D98F114A20003F
:101F20000A40DA8702F07DFB23680633DA8FD20598
:101F300003D5D98F0C4A0A40DA8705B0F0BDC046F8
:101F4000060400000F0F000080C000000204000023
:101F5000FFBFFFFFFFDFFFFF00BDFFFFFFEFFFFF42
:101F6000FFF7FFFFFFFDFFFFFFFEFFFF30B51C2463
:101F70000D0605D57F2529404C432100283103E07B
:101F80004C4321000931FF314118002A02D18A72E5
:101F90008B8004E00122CB801B0C8A720B81002015
:101FA00030BD0000F0B5036885B00400DB0703D442
:101FB00023689B0769D4B5E00C23C04D6A681A40BA
:101FC000042A0BD06A681340082B0ED1C0236A681C
:101FD0005B02134080225202934206D12B689B037E
:101FE000E6D56368002BE3D1A3E12B68B44FB54E6F
:101FF0003B402B602B6833402B60FEF78DFA01903D
:1020000080212A688902AD4B0A4207D0FEF784FA84
:10201000019BC01A6428F3D9032001E26268012AF7
:1020200008D0002A0CD0052A0AD180211A68C902DA
:102030000A431A6080211A6849020A431A6005E0BF
:102040001A6817401F601A6816401E606368002BEC
:102050000DD0FEF761FA80260700B6022B683342E6
:10206000A6D1FEF759FAC01B6428F7D9D4E7FEF7CA
:1020700053FA80260700B6022B68334298D0FEF749
:102080004BFAC01B6428F7D9C6E70C238B4D6A684E
:102090001A420BD06A681340082B16D1C0236A6815
:1020A0005B0213408022120293420ED12B689B07E1
:1020B00003D5E368012B00D03BE1F8212B682269AE
:1020C0008B43D20013432B602CE0E3680122002BEA
:1020D00018D02B68022613432B60FEF71DFA070069
:1020E0002B687649334205D1FEF716FAC01B022849
:1020F000F6D991E7F8200B6822698343D200134395
:102100000B600FE02B68022693432B60FEF704FA66
:1021100007002B68334205D0FEF7FEF9C01B0228EA
:10212000F7D979E723681B0703D423685B073BD5FE
:102130003EE0236A0122614D002B0FD06B6A02261C
:1021400013436B62FEF7E8F907006B6A3342ECD188
:10215000FEF7E2F9C01B0228F7D95DE76B6A022699
:1021600093436B62FEF7D8F907006B6A3342DCD009
:10217000FEF7D2F9C01B0228F7D94DE70121002A4A
:1021800050D0052A4ED104201A6A02431A621A6AF4
:1021900011431962A368002B53D0FEF7BDF9022644
:1021A00007002B6A334245D02368DB0657D4A3E0EF
:1021B00080238027414D5B05EA69434E1A43EA615B
:1021C000EA697F0013400393039B33683B4333600A
:1021D000FEF7A2F9019033683B4206D1FEF79CF965
:1021E000019BC01A6428F6D916E701222B6A022641
:1021F00093432B622B6A033293432B62FEF78CF9D5
:1022000007002A6A2D4B324206D0FEF785F92F4B84
:10221000C01B9842F5D9FFE6A268012AAED1196A1F
:102220000A4305E01A6A8A4304211A621A6A8A4339
:102230001A62AFE7FEF770F9244BC01B9842B0D981
:10224000EAE6FEF769F9022607002B6A3342ABD0B3
:10225000FEF762F91D4BC01B9842F6D9DCE66269B5
:10226000164D0423012A1BD1696B02260B436B63B5
:102270006B6B1A436A63FEF74FF907006B6B0F49EC
:10228000334205D1FEF748F9C01B0228F6D9C3E650
:10229000F8204B6BA2698343D20013434B632BE0BE
:1022A000053215D1F8216A6B9A436A636B6BA26998
:1022B0008B43D20013436B631EE0C0460010024004
:1022C000FFFFFEFFFFFFFBFF0070004088130000D0
:1022D0006A6B0226134301226B636B6B93436B6340
:1022E000FEF71AF907006B6B334205D0FEF714F9BD
:1022F000C01B0228F7D98FE623689B0603D4626AC5
:10230000002A3ED16DE00C23464D6A681A409A427D
:1023100009D06A681340082B0DD1C0226B685202A5
:102320001340934207D16B6BDB03E8D5E369012BC4
:10233000E5D0012074E0E369002B10D080266B6BA0
:10234000760233436B63FEF7E7F807006B6B3342AB
:10235000D5D1FEF7E1F8C01B0228F7D95CE66A6B1D
:10236000314B802613406B63FEF7D6F807007602E8
:102370006B6B3342C3D0FEF7CFF8C01B0228F7D9EE
:102380004AE60C23274D69680B40082BD1D0274B18
:10239000022A34D12A68802613402B60FEF7BCF84D
:1023A0000700B6042A681F4B32421CD10F21DA6A9B
:1023B0008A43216B0A43DA62A16AE06A5A680843D9
:1023C0001B4980240A40802102435A601A6849044C
:1023D0000A431A60FEF7A0F80600A4042B68234203
:1023E00007D000201CE0FEF797F8C01B0228D9D9BF
:1023F00012E6FEF791F8801B0228EFD90CE62A6856
:10240000802413402B60FEF787F80600A4042B6895
:102410002342E6D0FEF780F8801B0228F7D9FBE5BF
:1024200005B0F0BD00100240FFFFFEFFFFFFFFFE02
:10243000FF7FC2FF0123F7B5494E019132680500C5
:102440001A408A420AD32B689B0713D5F021454ACC
:1024500053688B43A9680B4353600BE032680199C2
:102460009A430A43326032681340019A9A42EAD092
:10247000012074E02B68DB0707D401233168019841
:10248000374A1940884256D35BE06B68354C012BC4
:1024900003D1226892030FD4EAE7022B03D122680A
:1024A000920109D4E4E7032B03D1626BD20303D476
:1024B000DEE722689207DBD5032162688A43134373
:1024C0006360FEF729F86B680700012B0CD10C2222
:1024D00063681340042BD0D0FEF71EF8224BC01BBC
:1024E0009842F4D903203AE0022B0BD10C22636806
:1024F0001340082BC1D0FEF70FF81B4BC01B9842AE
:10250000F4D9EFE7032B11D10C22636813409342F7
:10251000B3D0FEF701F8144BC01B9842F4D9E1E7A1
:10252000FDF7FAFF104BC01B9842DBD80C22636802
:102530001342F5D1A1E711689943116012681A425C
:1025400096D12B685B0706D50649084B4A681340AD
:10255000EA6813434B600020FDF7B4FF0020FEBD86
:10256000002002400010024088130000FFF8FFFF27
:1025700030B5194C89B010222100684602F07AF972
:10258000210004AD10221031280002F073F90C2252
:10259000124843681A40082A03D00C2A19D110485F
:1025A00018E00F226C46990C1140645CC16A8020CF
:1025B0000A40A95CC022520213404002834206D066
:1025C000934204D10648FDF7BFFD604302E0054891
:1025D000F9E7044809B030BDA048000800100240E7
:1025E000006CDC0200127A0010B5FFF7C1FF054B4A
:1025F000054A5B681B061B0FD35CD840034B186071
:1026000010BDC04600100240C84800082804002041
:10261000F0B5036885B00400DB034BD58023802729
:102620003A4D5B05EA693A4E1A43EA61EA697F006E
:1026300013400393039B33683B433360FDF76CFF08
:10264000019033683B4207D1FDF766FF019BC01A3A
:102650006428F6D9032056E061682A6A2B4B4A4069
:10266000C02189000A4225D08027196A1A6A0E0003
:102670007F023A431A621F6A2648274A06403A40B8
:102680001A621E6202260190314206D1019A2B6A1B
:102690001340626813432B620CE0FDF73DFF070017
:1026A0002B6A3342F2D1FDF737FF1C4BC01B984217
:1026B000F6D9CFE72368DB0706D50321134A136B4E
:1026C0008B43A1680B43136323689B0606D5102137
:1026D0000E4A136B8B43E1680B43136323689B0320
:1026E00006D58021094A136B8B4361690B43136341
:1026F000236800205B0506D5402204490B6B9343F9
:10270000226913430B6305B0F0BDC04600100240C0
:1027100000700040FFFCFFFFFFFFFEFF881300007A
:10272000E02110B5026853688B43536082234268EE
:102730005B009A420DD1802283681202934203D03B
:102740008022D200934204D14021026813688B4357
:1027500013608023816A9B01994208D10368084A6B
:102760001C6822401A60026813680B431360030060
:1027700001225D331A7000235C300370032010BD0A
:10278000FFDF0000F0B585B006000D0017001C004B
:10279000FDF7C2FE019002AB3168DA1D8B682B4059
:1027A000BB4218D0C023DB009D4205D1002F03D1CE
:1027B0000B7BDBB213701378631CEFD0002C03D1BA
:1027C0003000FFF7ADFF07E0FDF7A6FE019BC01A42
:1027D0008442E0D8F4E7002005B0F0BDF7B505006D
:1027E0000E0001921C00FDF797FE07002A6893680F
:1027F000019933408B420DD0631CF8D0002C03D1DB
:102800002800FFF78DFF06E0FDF786FEC01B84421F
:10281000ECD8F5E70020FEBD70B50B000D00C0211F
:10282000002249010400FFF7ADFF021E06D12B0074
:1028300080212000FFF7D2FF002804D020230320AE
:10284000226E1343236670BD822370B54268040074
:102850000E005B009A420DD18022836812029342DF
:1028600003D08022D200934204D140212268136811
:102870008B4313603300002280212000FFF7AEFF5E
:10288000051E16D1822362685B009A4216D180220F
:10289000A3681202934203D08022D20093420DD14A
:1028A000C02133000022C9002000FFF76BFF002881
:1028B00004D020230325226E13432366280070BD15
:1028C00070B504000120002C64D025005D352B7804
:1028D000DBB2002B05D122005C321370200001F026
:1028E000DFFD022340212B702268002013688B43F8
:1028F000E0211360E268C9008A4205D9F0231B0178
:102900009A4206D1030006E080235B018A4201D18E
:1029100001E00300A062206B002805D18A4201D9A2
:10292000022200E001222263A1686268A6690A43CC
:10293000216920680A4361690A43E1690A43216AFF
:102940000A43A16A0A438021890031400A43026098
:10295000226B022A05D18020216800010A68024307
:102960000A60616B626AE6680A4304211643A26941
:102970002068120C0A403243134343602368E26A22
:1029800000201A612268044BD1690B40D3610123F6
:1029900020662B7070BDC046FFF70000F0B5040044
:1029A00087B01E0003911700FDF7B6FD23005C33CE
:1029B000029001931B780220012B00D13EE10123FC
:1029C000019A0500137023005D331A78012A00D0A4
:1029D0002DE1039A002A00D128E1002F00D125E142
:1029E000002E00D122E1052225001A7000230835AF
:1029F0002366A31D2764EE87DE87039BA16AA3637A
:102A00008023E687A6879B01994208D123688C4AD8
:102A1000186802401A60226813680B431360E022B2
:102A2000E168D2002368914202D8EA8F012A03D9D3
:102A30005968844A0A4003E080215A6849010A43E0
:102A400040215A6023681A680A4202D11A680A4370
:102A50001A60E023E268DB009A4203D8802601274F
:102A600076015AE001260227802280219201490145
:102A7000E38F002B31D023689868384212D0A06BC6
:102A80000088D860A36B0233A363E38F013B9BB242
:102A9000E387002B06D1A36A934203D12068036821
:102AA0000B430360EB8F002B0CD0236898683042F7
:102AB00008D0DB68206C0380236C02332364EB8F27
:102AC000013BEB870C9B0133D2D0FDF725FD029B28
:102AD000C01A0C9B8342C7D88BE0EB8F002BE4D14C
:102AE0008023A26A9B019A4200D088E058E0E38FDD
:102AF0009C46002B32D002222368986810420FD1E6
:102B0000EB8F002B2DD10C9B0133F0D0FDF704FD92
:102B1000029BC01A0C9B83426BD980218901E6E796
:102B20006246A06B012A07D90088D860A36B0233E4
:102B3000A363E38F023B05E0421CA2630078187395
:102B4000E38F013BE387E38F002BD9D1A36A8B424C
:102B5000D6D12068036833430360D1E7EB8F002BA5
:102B6000BED0226890683842CDD0206C012B0FD99E
:102B7000D3680380236C02332364EB8F023B9BB248
:102B8000EB87012BBFD82068436833434360BAE723
:102B9000431C2364137B0370EB8F013BEB87B2E78D
:102BA00001220C9B11002000FFF718FE002804D022
:102BB0000223226E134323661BE0F02204A98D1D1D
:102BC000E16812012368914202D1DB689BB214E0F4
:102BD0001B7B266B2B802B88022E10D101220C9B95
:102BE00011002000FFF7FAFD002804D0236E1E43D9
:102BF000266603251BE023681B7B2B802B8822681D
:102C000000259368DB0606D50223216E01350B43B0
:102C100023660D4B93600C992000FFF7FDFD002803
:102C200001D020232366236E002B00D00125012331
:102C30005D34237000232800019A137007B0F0BDA3
:102C4000FFDF0000FFEFFFFFEFFF0000F0B5040023
:102C500087B016001D000F00FDF75EFC822362683E
:102C600003905B009A420AD1A368002B07D100951C
:102C700033003A0039002000FFF790FEFEE0230009
:102C80005C3302931B780220012B00D1F6E0012374
:102C9000029A137022005D321378DBB2012B00D050
:102CA000E6E01800002F00D1E2E0002E00D1DFE0C6
:102CB000033313700023A21D236627640232968714
:102CC000D687A363A387E3878023A06A9B019842EA
:102CD0000BD123686A491E683140196021680B686E
:102CE00003430B60D38F013BD387E022E168D2001E
:102CF0002368914203D95968624A0A4003E080215F
:102D00005A6849010A435A608023A2681B029A420A
:102D100004D122685C4B11680B401360402123688A
:102D20001A680A4202D11A680A431A60E023260090
:102D3000E268DB00083601279A4227D8F38F002B80
:102D400027D0226893683B4208D0236C591C216429
:102D5000127B1A70F38F013BF387EFE7002D4DD004
:102D60006B1CEBD0FDF7D8FB039BC01A8542E5D85E
:102D700044E023689A683A4211D0DB68226C1380E1
:102D8000236C02332364F38F013BF387F38F002B13
:102D9000EFD18023A26A9B019A4253D10AE0002D11
:102DA0002CD06B1CF2D0FDF7B7FB039BC01A8542F9
:102DB000ECD823E0802122684901136820000B43EE
:102DC000136001222B001100FFF708FD002815D128
:102DD000E021E068C9002268236C884202D9D268E9
:102DE0001A8001E0127B1A7001222B0011002000D2
:102DF000FFF7F4FC002803D002232366032037E00A
:102E0000F0210E26E26802A80901236836188A42DA
:102E100002D1DB689BB213E01B7B33803388E02355
:102E2000DB009A420ED1236B022B0BD101222B0027
:102E300011002000FFF7D2FC0028DDD123681B7BA6
:102E40003380338829002000FFF7FEFC002801D0E2
:102E50002023236622689368DB0605D50223216EB2
:102E60000B432366094B9360206E431E9841C0B20A
:102E700001235D3423700023029A137007B0F0BD64
:102E8000FFDF0000FFEFFFFFFFBFFFFFEFFF0000CE
:102E900001210368DA680A43DA60026800201368D7
:102EA0000B4313607047000001210268D3688B4315
:102EB000D3600368064A186A104206D1186A054AA8
:102EC000104202D11A688A431A6000207047C04637
:102ED00011110000440400007047704770477047AC
:102EE000022210B5036804001969114214D0D96890
:102EF000114211D0053A1A610123037603689B69D8
:102F00009B0702D0FFF7E9FF04E0FFF7E5FF200091
:102F1000FFF7E4FF00232376042223681969114296
:102F200017D0D968114214D0093A1A6102232376C6
:102F3000236820009A69C0239B001A4202D0FFF741
:102F4000CCFF04E0FFF7C8FF2000FFF7C7FF002316
:102F50002376082223681969114215D0D9681142D5
:102F600012D0113A1A610423237623682000DB690A
:102F70009B0702D0FFF7B1FF04E0FFF7ADFF200091
:102F8000FFF7ACFF00232376102223681969114252
:102F900017D0D968114214D0213A1A610823237638
:102FA00023682000DA69C0239B001A4202D0FFF791
:102FB00094FF04E0FFF790FF2000FFF78FFF00234E
:102FC0002376012223681969114207D0D96811427A
:102FD00004D0033A1A61200001F0ECF98022236842
:102FE0001969114208D0D968114205D0023AFF3A56
:102FF0001A61200000F07CF8402223681969114210
:1030000007D0D968114204D0813A1A612000FFF735
:1030100066FF202223681969114207D0D96811423E
:1030200004D0413A1A61200000F061F810BD0000A0
:103030001B4A10B50368904206D08024E405A042E4
:1030400002D0184CA0420CD17024A3434C682343F7
:1030500090420FD08024E405A0420BD0114CA04236
:1030600008D0114CA04205D0104CA04202D0104C08
:10307000A04203D10F4C2340CC68234303608B68EC
:10308000C3620B688362904205D0084B984202D01D
:10309000074B984201D10B6903630123436110BDC3
:1030A000002C01400004004000200040004401408A
:1030B00000480140FFFCFFFF70B504000120002C18
:1030C00014D0250039352B78DBB2002B05D1220036
:1030D00038321370200001F013FA02232B7020689D
:1030E000211DFFF7A5FF012300202B7070BD704745
:1030F00070470000862310B59B00C358190050315B
:103100000A78012A1ED1187B022819D11A7CDC7B8F
:103110001202A2180C4C22809A7C5C7C1202A2182B
:103120000A4C22801A7DDC7C1202A218084C2280F4
:103130009A7D5B7D12029B18064A1380064B18800D
:1031400000230B70002010BDFC04002000050020AF
:10315000FE0400200E050020940500202923038092
:1031600000487047C404002086239B00C3580020F9
:1031700051331870704700000A23038000487047DD
:10318000B8040020862370B59B00C45805000220B7
:10319000002C0BD0280001F00DFB2200E0640C3263
:1031A00040230121280001F0FDFA002070BD00003D
:1031B0008623602270B50C789B000500C35814402C
:1031C0004CD0202C74D1487801380A2841D8FCF71B
:1031D000A7FF1E10094040404040130C06008A78AB
:1031E0001A6065E0012219002FE04A88120A5A602D
:1031F0005EE0191D012228E01A00012050321070F3
:103200000C338A792800190000F0F9FB50E00F23F5
:103210004A8829491340022B16D10B70013B4B7091
:10322000264B1B88CB701B0A0B71254B1B884B71DF
:103230001B0A8B71234B1B88CB711B0A0B72224B11
:103240001B884B721B0A8B720B22280000F0C1FBFB
:103250002EE0280000F0E9F902242AE04A780A2A40
:103260001CD00B2A21D0062A23D14B881B0A222BE3
:1032700007D1CB881A1C452B00D9452292B213499D
:103280000FE0212B07D1CB881A1C092B00D909226A
:1032900092B20F4905E02100220002E00833190034
:1032A0000122280000F095FB03E08A789A6000E094
:1032B0000024200070BDC04668050020FC040020EA
:1032C00000050020FE0400200E05002064040020FC
:1032D000AC04002070B504008625812101F027FA96
:1032E000AD000121200001F022FA6059002803D02E
:1032F00001F06CFA00236351002070BD70B5050029
:103300000A230322812101F007FA4023032201212D
:10331000280001F001FA542001F054FA86239B00A2
:10332000E850012400280AD0002451300470EA58E3
:10333000D93B0C32FF3B0121280001F033FA200079
:1033400070BD1300FE2270B55200825C0225032A74
:103350000DD186229200845851342678002E06D151
:10336000012222700A00812101F014FA35002800A0
:1033700070BD10B50223002813D085239B00C458CC
:10338000002C01D00024C450002902D084239B00CB
:10339000C150FE2301215B00C154027001F07AF993
:1033A0000023180010BD0223002903D085239B00B1
:1033B000C15000231800704710B501F0A5F9002096
:1033C00010BD852310B59B00C358002B01D10220EE
:1033D00003E01B6898470028F9D110BD852310B57C
:1033E0009B00C3585B689847002010BD82239B0058
:1033F00070B5C5180400280000F003F9FA23012273
:103400005B00E250124BE25A163BE2501033E15C93
:10341000EA3BFF3B0B40012B0DD0002B06D0022BCB
:103420000ED12900200000F046FA0EE0290020000D
:1034300000F006F909E02900200000F01FFA04E07E
:103440007F232000994301F07AF9002070BDC04627
:103450000E02000070B504001500002926D1FA23E1
:103460005B00C358032B2DD10530FF308368C26841
:1034700093420AD99B1A83609A4200D91A0092B2E9
:103480002900200000F0CBFA1CE085239B00E358C4
:103490001B69002B06D0FE225200A25C032A01D138
:1034A00020009847200000F0C2FA0BE085239B0023
:1034B000C3589B69002B05D0FE225200825C032A70
:1034C00000D19847002070BDF8B50D000400110030
:1034D000002D40D1FA235B00C358022B33D1C269BF
:1034E000066AB24205D9921BC26192B200F07FFA1D
:1034F00012E0876931003800FCF7ACFE0D1E12D1D6
:10350000BE4210D8FC267600A3599F420BD20A0077
:10351000200000F06CFAA5512B002A0029002000A1
:1035200001F040F90FE085239B00E358DB68002B96
:1035300006D0FE225200A25C032A01D12000984747
:10354000200000F080FA80239B00E25C012A0FD16A
:103550000022E2540CE085239B00C3585B69002BDA
:1035600006D0FE225200825C032A01D1290098472E
:103570000020F8BD002270B504001100402301F0C6
:10358000CBF823004025FC335D6100222B00802115
:10359000200001F0C1F8FE2301225B002562E25405
:1035A0001C33E358002B06D085239B00E358217978
:1035B0005B6820009847002070BD017400207047B0
:1035C000FE23FE225B00C15CFF328154FA3AFF3ACF
:1035D000C25400207047FE23FF33C25C013BC2543B
:1035E00000207047FE2310B55B00C35C032B06D19F
:1035F00085239B00C358DB69002B00D0984700202F
:1036000010BD0B7803704B784370CB788A781B021F
:10361000D31843804B790A791B02D3188380CB7966
:103620008A791B02D318C380704710B5040080212B
:1036300001F085F80021200001F081F810BD0000A4
:10364000F7B5040048780D00092800D90EE1FCF711
:1036500071FDD700F6000D01ED000D0179000A00A3
:103660000D01C6009A004B88180A0138062800D9B7
:10367000FCE0FCF75FFD070010001F00FB00FB00F3
:103680003C00480084236A469B00E358207C1B686A
:10369000911D984744E08523227C9B00E358002A33
:1036A00001D19B6A00E0DB6A6A46901D98470223BD
:1036B000437035E0D8B2052800D9D7E084229200C3
:1036C000237CA258FCF72CFD030507090B0D52685B
:1036D00008E0926806E0D26804E0126902E05269EC
:1036E00000E09269694618000631904718E0237C93
:1036F000002B00D0BAE085236A469B00E358901D5A
:103700005B6B98470CE0237C002B00D0AEE0852358
:103710006A469B00E358901D1B6B98470723C7E739
:103720006B469E1D3188002900D1A3E0EA88002A5B
:1037300000D19FE00B1C914200D9131C9AB2338038
:1037400001006FE08B88002B00D08FE0CB88002B2E
:1037500000D08BE0FE274E887F337F001E40E35D64
:10376000032B00D182E0FF235B00E65431002000F0
:1037700001F008F8200000F05AF90223002E00D1D1
:103780000123E35576E089783B4E317001296DD8ED
:10379000FE235B00E25C022A02D0032A07D065E028
:1037A00000295FD0012103226160E25411E0002969
:1037B00006D102222000E2546160FFF70FFE51E0C3
:1037C000616801294ED0C9B22000FFF707FE3178A9
:1037D00061602000FFF7F5FD022843D146E0CA886A
:1037E000012A43D1FE235B00E35C022B03D0032BB1
:1037F0003CD1211D16E000232100A360083111E017
:10380000FE235B00E35C023B012B2FD80123E36026
:1038100081239B00E358002B01D00323E3602100A8
:1038200002220C31200000F0D4F823E04B88012B59
:1038300020D181229200A35085239B000DE0FE231E
:103840005B00E35C023B012B10D84B88012B11D1AC
:10385000812300229B00E2501033E35829009B682B
:1038600020009847200000F0E2F803E02900200043
:10387000FFF7DBFE0020FEBD73050020FE2370B5C0
:103880005B00C35C04000D00032B0ED10B79012BF0
:103890000BD885239B00C3589B689847EB88002B67
:1038A00007D1200000F0C3F803E029002000FFF753
:1038B000BCFE002070BD70B50D00602304008A8836
:1038C0002878D1B20340202B07D1F533FF33E358DA
:1038D00029009B68200098475BE06B78012B13D090
:1038E000002B2BD0032B54D1FA33FF33E35C022B94
:1038F0002CD0032B49D16B88002B14D14B0612D04E
:10390000200000F01CFF0EE0FE235B00E35C022BB6
:103910001CD0032B39D16B88002B3AD14B0609D030
:10392000200000F014FF85239B00E35829009B68CA
:1039300020009847200000F07AF82AE0FE235B0080
:10394000E35C022B02D0032B06D01EE04B0620D0F6
:10395000200000F0F4FE1CE07F250D40130601D589
:10396000013500E010352D0165192000043500F007
:10397000F6FE002802D001232B6000E0286002221E
:103980002900200000F025F803E029002000FFF7BF
:103990004CFE002070BD002330B5984218D0C45CA6
:1039A0005D1C002C01D02B00F9E7DBB25B00023379
:1039B00013800B7003234B70013B0578002D07D05B
:1039C0005A1CCD54D2B202330130DBB28C54F4E72E
:1039D00030BD1300FA2210B50224520084500A00B0
:1039E0008361C361002100F0D5FE002010BD10B539
:1039F00013000A00002100F0CDFE002010BD1300CE
:103A0000FA2210B50324520084500200FC32D36025
:103A100013610A00002100F0C5FE002010BD10B5A2
:103A200013000A00002100F0BDFE002010BDFA23A3
:103A300004225B0010B5C25000231A00190000F0E8
:103A4000A9FE002010BDFA2305225B0010B5C2506C
:103A500000231A00190000F0A5FE002010BD000090
:103A6000064B074A984204D80188914203D104309A
:103A7000F8E7012000E0002080B27047FF730008E3
:103A8000FFFF000070B50A001A4B1B491B8809880C
:103A9000040089B29BB2002904D118495B18591E51
:103AA0008B4106E0AB20002B22D1144BC9184B42AE
:103AB0004B4113495B015D18013312499B02AD0272
:103AC0005B189D4213D2296801310ED100232900D1
:103AD0000120FDF741F9002805D10300A91C2200AF
:103AE0000120FDF739F980B202E00435E9E78020D2
:103AF00070BDC04600700008007800081211FFFF7A
:103B00001C000200FF6F00081FB50023134800933C
:103B10000193013302900393FFF7A2FF002808D01E
:103B2000002200230D490120FDF716F9041E12D1D1
:103B300006E0694601A8FDF775F9041EF0D00AE019
:103B400007480290FFF78CFF002804D1694601A8BE
:103B5000FDF768F90400200004B010BD00700008F3
:103B60000078000810B5104B104A1B8812889BB2D1
:103B700092B2002B04D0002A01D0AB2012E0202307
:103B80000B4C9A0213190B4C1219934209D91C8839
:103B9000844204D1023B1B8800200B8002E0043BDE
:103BA000F3E7012010BDC04600700008007800084F
:103BB000FE730008027000080021F0B55B4887B072
:103BC00002915B4A04885B4D1388A4B203910131D2
:103BD0009BB204900591AC421AD057498C4203D055
:103BE000002C00D09AE05FE0002B41D0AB4200D027
:103BF00094E0FFF735FF002806D102A903A8FDF7DE
:103C000011F9002800D08DE000220023484947E048
:103C1000002B33D101271C007F42484B65001A88D6
:103C2000474B585B0193824200D127B2BC4203D17B
:103C30000134042CF1D10DE0424E3100FFF792FF28
:103C40000128F5D0019B3188585BFFF71BFF002846
:103C5000EED068E00022002334490120FDF77CF813
:103C600000285FD1324B0390049301233048059321
:103C7000FFF7F6FE00284CD0002054E02E498B427E
:103C80004CD110000492FFF7EBFE002805D102A9E9
:103C900003A8FDF7C7F8002844D1002200232349D8
:103CA0000120FDF759F83BE0002B37D08B4202D1C1
:103CB00004921000DCE701277F42234B65001A883D
:103CC0001F4B585B0193824200D127B2BC4203D103
:103CD0000134042CF1D10DE01A4E3100FFF742FF00
:103CE0000128F5D0019B3188585BFFF7CBFE0028F7
:103CF000EED018E0002200230D490120FDF72CF83A
:103D000000280FD1094B0390049301230748059322
:103D1000AEE702A903A8FDF785F801E0FFF7F4FE7E
:103D20000028A9D080B207B0F0BDC04600700008DE
:103D300000780008EEEE0000FFFF000006700008AB
:103D4000040500207405002006780008F0B587B04F
:103D500007000E00FFF796FE040080284CD10023D8
:103D6000274D0293274B29881A8892B2002904D044
:103D70002B34002A40D1009301E000951D00224A17
:103D8000002329000120FCF7E7FF002833D1310090
:103D90003800FFF777FE041E2ED106001B4BF318E8
:103DA00018880193874203D10236082EF6D10EE01F
:103DB0001749FFF7D7FE0128F6D0154B1988019B4C
:103DC0001888FFF75FFE0028EED0040014E00023FF
:103DD00001260393009B02A903A804930596FDF70F
:103DE00021F8002807D10022002329003000FCF729
:103DF000B3FF002800D084B2200007B0F0BDC04659
:103E00000070000800780008EEEE000004050020B5
:103E100074050020302310B598B00B93203B01248B
:103E2000119300230BA8129410941493FEF7BAF880
:103E3000002800D0FEE70723039001930490043B81
:103E4000210001A80293FEF7F5FA002800D0FEE752
:103E500080230A909B0205A80593FEF7D9FB041E58
:103E600000D0FEE7FEF7C0FBFA218900FCF76CF9F1
:103E7000FCF7ACFD0420FCF7C3FD0120220021006B
:103E80004042FCF769FD18B010BD0000F0B58DB0E0
:103E9000FCF72AFBFFF7BEFF8023D14CDB036269EE
:103EA00002211A4362616269CE4813400493049B65
:103EB000802362699B021A43626162690126134092
:103EC0000593059B80236269DB021A436261626984
:103ED0000025134006930022069BFDF79BF8022362
:103EE00007A90793BF489B190A9308960995FCF701
:103EF000E7FF63692A003343636163692900334044
:103F000003930920039BFCF727FD0920FCF754FDD0
:103F1000B54CB64B0727236008236361C2232000FA
:103F2000FF336560A560E5602661A561E5612662F5
:103F30006562A362A763E56226636563FCF740FBE5
:103F4000A84200D0FEE7802307905B0107A920006C
:103F500008930997FCF77AFC002800D0FEE707A930
:103F600020000796FCF772FC002800D0FEE7022331
:103F700007A920000793FCF769FC002800D0FEE7A2
:103F8000032307A920000793FCF760FC002800D05A
:103F9000FEE7042307A920000793FCF757FC00283D
:103FA00000D0FEE7924D934BA8602B6082235B000C
:103FB0006B60E023DB00EB6080239B00AB61E93B9F
:103FC000FF3B28616861EB6128626862A862286330
:103FD000103B2800EF626B63FEF772FC0195061E32
:103FE00000D0FEE700F0CAFA8348844B8660036085
:103FF000302343603433C3600661FFF75DF8002867
:1040000000D0FEE7FCF762FEFFF7D6FD7C4D7D4950
:104010002888FFF7A7FD7C496888FFF7A3FD7B4947
:10402000A888FFF79FFD7A49E888FFF79BFDFCF71A
:104030005FFE052277492000FCF76CFB012202217C
:104040006848FCF7E7FF6C4C2000FEF721FF2000DA
:10405000714C2368002BFCD0FEF726FF0023236061
:104060006E4C6F4B022221000198FEF7EFFD0028F5
:1040700002D003286DD86BE06A4B22785870D87054
:10408000FF2A69D00121500700D5597002200A4249
:1040900002D05978014301E05978814359700420D6
:1040A000910702D55978014301E05978814359704D
:1040B00008210A4203D05A781143597002E05A7815
:1040C0008A435A70012162780A4200D0D9700220D6
:1040D000D978024202D00843D87001E08143D970F8
:1040E0000420D978024202D00843D87001E081430D
:1040F000D9700820D978024202D00843D87001E074
:104100008143D9701020910602D55978014301E00E
:1041100059788143597050B220245978002801DA27
:10412000214300E0A143402059705978024202D057
:104130000843587001E081435970D20604D58021AC
:104140005A7849420A4306E07F2259780A4002E041
:10415000FEE7FF22334B5A70002202212148FCF770
:1041600059FF012360242F4F2A4E3B702E4B30689D
:104170001B882E4D634380002840C0186421FBF744
:10418000E3FF6A4683B27068294E8000054030889C
:1041900000934443244B128828191A806421FBF7AA
:1041A000D3FF1E4B10211D7882B22B000B409C4682
:1041B00060463280154CFB7800283BD02088904226
:1041C00002D98020B87008E0114805880020B87036
:1041D000954202D20B43FB7068E08B43FBE7C0467D
:1041E0000010024000040048E806002000240140BE
:1041F000100600200030014074060020002000401E
:1042000004050020FC04002000050020FE0400201E
:104210000E05002080050020780500207C05002088
:10422000B80B0000ED04002010050020FCFF030087
:104230000C0500207F20BE788B43FB702388304024
:10424000B870934218D9354B00991B888B4203D91B
:104250000223002829D029E0002827D1304B0098DC
:1042600019880823814204D2402118330D4200D01E
:104270000B002C498B7019E02B4B1B88934213D2F7
:10428000264B009D1B88AB4203D9012300280CD08C
:104290000CE000280AD1224B00981B88834200D3EF
:1042A0000421204B997001E06346BB706B461B787C
:1042B0001E4E3B71009BBA71180A3388120A78713E
:1042C000FA71022B19D1FCF701FD194D134B288807
:1042D0001988FFF73BFD124B68881988FFF736FDF8
:1042E0002188A888FFF732FD0F4BE8881988FFF76F
:1042F0002DFDFCF7FDFC0023338086230D489B0039
:10430000C358002B00D199E651331B78002B00D005
:1043100094E60E220349FFF714F88FE6FC04002010
:1043200000050020ED0400200E050020940500206B
:104330000405002034070020F8B51B4F6225B8683B
:104340001A4C40000200607A237A00021843684346
:10435000174E642132401018FBF7F6FE80B220722F
:10436000000A6072F868A37A40000200E07A3240E6
:1043700000021843684364211018FBF7E5FE80B281
:10438000A072000AE0723869237B40000640607B1F
:1043900064210002184345437019FBF7D5FE80B233
:1043A0002073000A6073F8BD80050020ED04002032
:1043B000FEFF0100044B02689A4203D1034A1368CE
:1043C000013313607047C04600200040780500208C
:1043D000FEE70000012307B50F4A0520916940421E
:1043E0001943916192691340002201931100019BCE
:1043F000FCF7B2FA0022022011004042FCF7ACFAAE
:104400000022012011004042FCF7A6FA1021034AC5
:1044100013680B43136007BD001002400000014009
:10442000F0B51B4B026887B005009A422DD180265B
:10443000184BB6009A69902032439A619B69002715
:1044400033400093009B1F23C005019301A91C3B2F
:1044500002930397FCF734FD0F4C104B20002360B0
:104460008023E36080231B0163612023A3618023F9
:104470009B016760A7602661E361FCF7D5FAB8424B
:1044800001D0FFF7A5FFEC63656207B0F0BDC04641
:104490000024014000100240B00600200800024045
:1044A00070B5154B026886B09A4222D18023134A18
:1044B0005B01916990201943916192690225134033
:1044C00000930024009B0326A02301A9C0050193AB
:1044D0000295039404960594FCF7F2FC9020402387
:1044E00001A9C00501930295039504960594FCF774
:1044F000E7FC06B070BDC04600300140001002402D
:1045000007B50B4B02689A4211D18023094A5B0020
:10451000D16913201943D161D2691340002201935C
:104520001100019BFCF718FA1320FCF745FA07BDB0
:1045300000200040001002407047FEE770477047BF
:1045400010B5FBF7E1FFFCF76AFA10BD10B50248A1
:10455000FCF7C6FA10BDC046B006002010B50248F0
:10456000FEF7BEFC10BDC0467406002010B5024820
:10457000FDF7A8FA10BDC0465809002010B5074C39
:10458000002207492000FEF7F4FE06492000FEF74E
:104590000AFF2000FEF710FF10BDC04634070020C0
:1045A000140500202C04002007B50B4B02689A422A
:1045B00011D18023094A1B04D1691F201943D161FD
:1045C000D2691340002201931100019BFCF7C4F94A
:1045D0001F20FCF7F1F907BD005C0040001002400D
:1045E0000100872310B59B00ED31FF31C058FEF765
:1045F000FDFE10BD1C234B4310B5C318FC33DA6914
:1046000087239B00C058FEF725FF10BD1C2310B563
:104610004B43C3189A6B87239B00C058FEF754FF87
:1046200010BD872310B59B00C058FEF7DBFF10BDFF
:1046300070B587240500A40001210059FEF7BDFFD5
:104640002859FEF797FF70BD872310B504009B0023
:10465000C058FEF7B5FFA369002B04D00621024A1B
:1046600013690B43136110BD00ED00E010B58369C1
:104670000400002B06D00621054A13698B43136101
:10468000FFF7C8FB87239B00E058FEF7A4FF10BD8F
:1046900000ED00E0872370B5050019489B00C55068
:1046A000184B8824036004234360023B8360032289
:1046B00003610023A4002851C2608361C361FCF739
:1046C000AFFC002801D0FFF783FE0022285911001B
:1046D0002023FDF74BFC2859602300228021FDF7A1
:1046E00045FC2859A02300228121FDF73FFC2859D1
:1046F000E02300220121FDF739FC002070BDC046F7
:1047000058090020005C0040882310B59B00C05869
:10471000FCF7D2FC002010BD10B514001A002300D5
:104720008824A4000059FCF7E7FC002010BD882372
:1047300010B59B00C058FCF757FE002010BD882321
:1047400010B59B00C058FCF7F3FF002010BD882374
:1047500010B59B00C058FDF73BF8002010BD882322
:104760004AB29B00C0581C23002A06DA7F2211405F
:10477000594343182A33187803E04B43C318FF33D7
:10478000D87A7047882310B59B00C058FCF79DFC71
:10479000002010BD10B58824A4000059FDF790F842
:1047A000002010BD10B58824A4000059FCF7ECFED1
:1047B000002010BD882310B59B00C058FCF7AEFF49
:1047C00010BD0000004870479805002070470000A9
:1047D000122301480B807047340500200423014850
:1047E0000B8070473005002010B5044C0A000448C7
:1047F0002100FFF7D0F8200010BDC046780B002044
:10480000D848000810B5044C0A0004482100FFF7FE
:10481000C2F8200010BDC046780B0020EF48000809
:1048200010B5044C0A0004482100FFF7B4F820003A
:1048300010BDC046780B0020FF48000810B5044C9E
:104840000A0004482100FFF7A6F8200010BDC0466A
:10485000780B00200C49000810B5044C0A000448ED
:104860002100FFF798F8200010BDC046780B00200B
:1048700017490008002310B59A4203D0CC5CC454F9
:104880000133F9E710BD0000F8B5C046F8BC08BC1C
:104890009E467047F8B5C046F8BC08BC9E467047B7
:1048A00002030405060708090A0B0C0D0E0F101071
:1048B0000102030405060708090A0B0C0D0E0F1070
:1048C000430000000000002000000000010203047B
:1048D0000102030406070809536869667465722FAC
:1048E000506564616C732041646170746572004945
:1048F0006E74657242696F6D6574726963730030BE
:10490000303030303030303030314200484944208F
:10491000436F6E6669670048494420496E7465724A
:08492000666163650000000000
:08492800C1020008E9000008CB
:04493000C1000008BA
:1049340000000000EC02002054030020BC0300200F
:104944000000000000000000000000000000000063
:104954000000000000000000000000000000000053
:1049640000000000C0480008000000000000000033
:104974000000000000000000000000000000000033
:104984000000000000000000000000000000000023
:104994000000000000000000000000000000000013
:1049A4000000000000000000000000000000000003
:1049B40000000000000000000000000000000000F3
:1049C40000000000000000000000000000000000E3
:1049D40000000000000000000100000000000000D2
:1049E4000E33CDAB34126DE6ECDE05000B00000097
:1049F40000000000000000000000000000000000B3
:104A040000000000000000000000000000000000A2
:104A14000000000000000000000000000000000092
:104A24000000000000000000000000000000000082
:104D5400000000000000000000127A00FD3200088C
:104D6400D5320008B131000800000000F530000819
:104D740069310008853100080000000000000000CF
:104D8400000000005D3100085D3100085D3100085D
:104D94007931000805010905A101850105091901F9
:104DA40029151500250175019515810295017503D5
:104DB400810105010901A10009010902093309342E
:104DC4000935150026FF0F751095058102C085026F
:104DD400090175109505B102C000000009211101F7
:104DE40000012245000000000A0600020000004005
:104DF4000100000009022900010100E03209040059
:104E040000020301000009211101000122450007ED
:104E14000581030A000107050103400001010000A8
:104E24000000000000000000000000007805F4010C
:104E3400C409000001100210031004100008280A1D
:104E440000080000D1470008DD47000805480008B5
:104E5400E9470008214800083D480008594800086F
:104E640004030904120100020000004009120DF0BD
:084E7400090201020301000024
:04000005080003F1FB
:00000001FF
